:040000006F20400F1E
:10000400000000000000000090000020900000208C
:10001400A9BDF9F3900000200000000000000000DA
:10002400900000209000002000000000000000006C
:10003400900000200000000090000020000000005C
:10004400900000209C0000209000002090000020E0
:100054009000002090000020680100209000002003
:1000640090000020E6000020900000209000002076
:1000740074010020900000209000002090000020D7
:10008400FC00002090000020900000209000002040
:1000940001A0411106C6EF005043F5BF411122C62D
:1000A400B7170040096737540020239EE70813045C
:1000B40084388347340185E737A506001305453C9A
:1000C40097A002E0E780809385472307F40203C5E5
:1000D40021810146896597B000E0E780A0BF3244E2
:1000E4004101730020303737004083476780A18B7C
:1000F40081C7A1472303F7807300203037370040BE
:10010400834767C0858BB9CF411122C626C4854772
:10011400372400202303F7C09304042703D52400C5
:1001240013040427976000E0E780803583D7240018
:100134001D478507C207C1832391F400637FF7003D
:100144001C4405456343F7000945976000E0E780D8
:10015400606723240400231104003244A2444101B3
:100164007300203073002030977000E0E78000189F
:1001740073002030B7170040130700032388E702F9
:10018400054723AAE1947300203073270080218B54
:100194009387819501CB7327008098C398435D9B17
:1001A400731007800F100000371700409306700586
:1001B4002300D704930680FA2300D7040F1000000D
:1001C4008346B70493F6F60DA305D704230007046A
:1001D400732600809443A18AD18E7390068023A055
:1001E40007000F100000937605026380061803478A
:1001F400A700118B3DE373270080218B01CB73276C
:10020400008098C398435D9B731007800F10000013
:1002140037170040930670052300D704930680FA2D
:100224002300D7040F1000008346A70093E646007E
:100234002305D70023000704F32600809843218B6D
:10024400558F7310078023A007000F1000001307B9
:10025400004B010001007D176DFF73270080218B87
:1002640001CB7327008098C398435D9B731007806C
:100274000F10000037170040930670052300D704C1
:10028400930680FA2300D7040F1000007D892314FD
:10029400A700010001000100010023000704F32668
:1002A40000809843218B558F7310078023A007008B
:1002B4000F10000073270080218B01CB732700806F
:1002C40098C398435D9B731007800F100000371785
:1002D4000040930670052300D704930680FA230098
:1002E400D7040F1000000F100000B72600401306BB
:1002F4001005A383C68023000704F32600809843D7
:10030400218B558F7310078023A007000F10000066
:1003140073270080218B01CB7327008098C39843F7
:100324005D9B731007800F10000037170040930681
:1003340070052300D704930680FA2300D7040F1016
:1003440000008346B70493E60608A305D7042300F8
:100354000704F32600809843218B558F7310078080
:1003640023A007000F1000008280937605046387A2
:1003740006140347A700418B3DE373270080218BBC
:1003840001CB7327008098C398435D9B731007804B
:100394000F10000037170040930670052300D704A0
:1003A400930680FA2300D7040F1000008346A700A9
:1003B40093E606012305D70023000704F3260080F3
:1003C4009843218B558F7310078023A007000F10CB
:1003D40000001307007D010001007D176DFF7327E6
:1003E4000080218B01CB7327008098C398435D9BC9
:1003F400731007800F100000371700409306700534
:100404002300D704930680FA2300D7040F100000BA
:100414009376F50193E606042314D7000100010046
:100424000100010023000704F32600809843218B78
:10043400558F7310078023A007000F1000001307C7
:100444006004631FE50273270080218B01CB7327AF
:10045400008098C398435D9B731007800F100000C1
:1004640037170040930670052300D704930680FADB
:100474002300D7040F100000B7260040094695BD9D
:1004840073270080218B01CB7327008098C3984386
:100494005D9B731007800F10000037170040930610
:1004A40070052300D704930680FA2300D7040F10A5
:1004B4000000B72600401306200525BD73270080E1
:1004C400218B01CB7327008098C398435D9B7310E5
:1004D40007800F10000037170040930670052300B3
:1004E400D704930680FA2300D7040F100000835624
:1004F400870093E6060C2314D700F5BB411181460F
:1005040001468145114506C6252473270080218BA9
:100514009387819501CB7327008098C398435D9B93
:10052400731007800F100000371700409306700502
:100534002300D704930680FA2300D7040F10000089
:100544008346670493E616002303D70423000704B5
:10055400F32600809843218B558F7310078023A0C6
:1005640007000F100000B24041018280814601461D
:1005740081451145752A73270080218B93878195C6
:1005840001CB7327008098C398435D9B7310078049
:100594000F10000037170040930670052300D7049E
:1005A400930680FA2300D7040F100000FD5623168B
:1005B400D70223000704F32600809843218B558F2C
:1005C4007310078023A007000F100000732700801A
:1005D400218B01CB7327008098C398435D9B7310D4
:1005E40007800F10000037170040930670052300A2
:1005F400D704930680FA2300D7040F100000834623
:10060400670493E616002303D70423000704F326A4
:1006140000809843218B558F7310078023A0070017
:100624000F10000001A0BD473305F50201007D1540
:1006340075FD8280411122C426C206C6AA840144E3
:1006440063179400B240224492444101828005041D
:100654001305803E4204C13F4180DDB74111B71705
:100664000040985F3AC6945F3247E39CE6FE324509
:10067400410182802303048015472303E4800100A1
:100684002302A480828083076480E3CE07FE2303D1
:100694000480828083076480E3CE07FE03454480A0
:1006A400828083076480E3CE07FE2302A4808280D5
:1006B400411126C44AC24EC006C61377F50BAD4796
:1006C400AA892E8995446306F70019456537653F65
:1006D4008D444E854537FD59FD1463983401B2406D
:1006E400A2441249824941018280135509011375BC
:1006F400F50F453F2209CDB7011126CC06CEB7042C
:10070400080051371545BD37713769372AC6A53FEB
:1007140032459377150089EB136515001375F50FB2
:10072400F240E24405618280FD14E9FC0145CDBF3D
:10073400397126DC4ADA4ED852D656D45AD25ED013
:1007440006DE62CE66CCB7E700E07D5783AA0700D9
:1007540022C603AA470023A0E71823A2E718B71765
:100764000040130770052380E704130780FA2380F1
:10077400E70483C74704930B75FFB684E20793FB32
:10078400FB0F8546AA892E8B328937240040E187E6
:10079400015763FA76016308D500894613070002FE
:1007A4006313D5000157D98F93F7F70FB71C004097
:1007B4002382FC0411472303E4801305F00F5D3DFD
:1007C400094CD135636D7C11B7050700DA9537877D
:1007D4000700795563F2E504B3879500636EF70269
:1007E400370B0800A94733EB65016399F90689E4DF
:1007F4008144513D26850DA0DA850945553D0509FD
:100804000345F9FFFD14050B693D81C49377FB0F84
:10081400FDF7DD3569FD7D55B717004013077005F9
:100824002380E704130780FA2380E70403C74704FF
:10083400418B2382E704F250B7E700E023A057116D
:1008440023A24711E25432445259C259325AA25A8D
:10085400125B825B724CE24C21618280A5476395F6
:10086400F90685691309F00FB3069900B3742B01D7
:10087400B6941349F9FFB3749900856B3379690110
:10088400416B9387F9FFB3F7270199E363FC3401C4
:1008940093D94900C147E3E637FF99BF0569C169A8
:1008A4007D19D9B71305800D63886901130500020A
:1008B4006384790113051008CA85DD3B353D21DDCC
:1008C4004E99B3843441D9B7DA852D45D533CA94CA
:1008D400E30099F205097D3BA30FA9FED5BF9387D9
:1008E400F9FF93F7F70F6361FC0C83C71C0413072C
:1008F4003008631FF70437070800636BEB04B30782
:100904009B00B706100063F5D704334BEB0089470F
:100914006393F9068980D549E38C04ECDA850945AB
:10092400413B11090327C9FF91472320E4800307B2
:100934006480E34E07FE23033481FD17EDFBFD14B1
:10094400110B81C49377FB0FE9FF7D3371F5E1B59A
:10095400B717004003C75704B70708001377070207
:1009640019E3B78707007955E378FBEA33079B005F
:10097400E3FFE7F855B58547E382F9F2DA852D45BB
:10098400053B9389F4FFE38504E6293393F73900A3
:1009940091EB832604800327090093074900E39A17
:1009A400E6E43E89CE84F1BFB5476396F9001305AA
:1009B400900BC93135BDB1471305B00AE38BF9FE7D
:1009C40099476391F904B7050800B365BB002D4549
:1009D400C53181448D4BA1497539639674018327D0
:1009E40004802320F9008504E39834FF83270480DE
:1009F40013172B01635507002312F900D5BB2322DB
:100A0400F900FDB39D476399F90281451305B004CC
:100A14004531BD442320090023220900FD599D3995
:100A240093F77400CA9703C70700FD14398D238018
:100A3400A700E39634FF6DBBA1476392F9046D39B7
:100A44008144630D0B008D479304C0036308FB00CE
:100A54009304000563048B01930440041375C507D4
:100A6400E30895D8194539313939054521312685A9
:100A74000D3909453D314931E31C05D669BB914720
:100A84006399F90013056006F536F53E13059009E0
:100A94000DB7E38F09D4F154A9BB19CD91CD09CE7B
:100AA40081473387F500834607003307F500850740
:100AB4002300D700E317F6FE828019C991C909CA39
:100AC400910583A7C5FF11057D16232EF5FEC5BF2D
:100AD400828001C919C62A960505A30FB5FEE31D38
:100AE400A6FE828081473307F5000307070019E358
:100AF4003E8582808507C5BF01112E8626CAAA8439
:100B0400131506019305F004418122CC06CE32C6AA
:100B1400EF00F0512A8401C53246A685BD3F2285E7
:100B2400F2406244D24405618280854715C18DC17B
:100B340005C28147B306F5003387F50083C6060076
:100B4400034707006398E6008507E315F6FE85472B
:100B54003E8582808147EDBF9307F6FFBE952A96B6
:100B64006313C5008280FD1583C715000505A30F17
:100B7400F5FEFDB7AA87014581CF09CE3E968507CC
:100B840003C7F7FF6317B700E39BC7FE05458280E1
:100B940082800145828079719387419822D4804371
:100BA40006D626D24AD04ECE52CC56CA5AC85EC6B3
:100BB4005DCCB7C4C901014B9389C1979384F437C1
:100BC400175A0000130A0A50975A0000938A4A538E
:100BD40017590000130909578357240085E35C441F
:100BE400631B0B0023A2F198832BC4002285EF0022
:100BF40070505E84B9A82326FB00FDB783A70900C3
:100C040082971C443307F5406376F50003274900B7
:100C14001D8F2A9763E0E4089757000023AA074E24
:100C2400835524000345040097A000E0E78040F3C7
:100C34005C405844A1CB0C4403264900AE97BE86C1
:100C440063E4B70063E4C700B386C74014C4228BCF
:100C54003A8459F0975700009387874A9C4B094779
:100C64006370F706F917175700002323F74AB250A9
:100C7400225492540259F249624AD24A424BB24B2C
:100C84004561828063150B0023A2E198B1BF23263E
:100C9400EB0099BF03274A0209CF63EFA70033850E
:100CA400A74083A70A016376F5009757000023A1A4
:100CB400A746228B404471BF03274900BA97C5B7A2
:100CC4009757000023A607445DB7411122C4175467
:100CD4000000130464451C4006C626C24AC091C7DE
:100CE40082979757000023A107449757000083C7B2
:100CF400775D858B975400009384845C95C39757E4
:100D04000000A381075C83C774001547637AF7006A
:100D1400052B83C77400F5178A07A2979C43829713
:100D24001C4491C38297138901970327090017561E
:100D340000000346F63C9757000083C7673C939630
:100D44001700BA9683D60600C5CE9757000083C70E
:100D5400273B63E1C70C975700002383073A1C40E5
:100D6400639507129757000083C7175691CF83C71F
:100D7400740093F7F70F89EB97570000A386075485
:100D840097A001E0E78020119387C1979C43638E6D
:100D9400070E975700009387E73ADC431757000084
:100DA4002328F736CD3B975700009387A731DC53B0
:100DB400E9CF175700001307A734184B97570000C3
:100DC40083C797316363F70C83C774001547636E59
:100DD400F70A9757000083C72753918BDDE7032653
:100DE40009009756000083C6B63163C6D70A224469
:100DF400B24092440249410117A306E06700432030
:100E0400850793F7F70F97560000238BF62EE3E43C
:100E1400C7F225BF86073E978355070023100700B6
:100E2400239C0196938781989C43175500000345A2
:100E3400252D13172500BA979C43829783D7819752
:100E4400175700000347C72B93C7F7FF7D8D9317F0
:100E54001700032709003E97835707005D8D231071
:100E6400A7009757000083C7A72991C7850717577D
:100E740000002307F72817570000034767289757F0
:100E8400000083C7F727E378F7ECB240224492448A
:100E940002494101828013971700329703570700D4
:100EA4006DF7850799B7AD6737C70040BD0723269F
:100EB400F7200F1000009757000093876724C84F4E
:100EC40083278726BD66BD0693C7F7FF99836A0506
:100ED4002326D7205D8D82804111B7170040985F8B
:100EE4003AC6945F3247E39CE6FE32454101828074
:100EF4001305F00F828001119757000093878748EC
:100F040022CC03A4070C26CA06CE2AC42EC68544C6
:100F140019E40145F2406244D2440561828083476A
:100F2400910003471400858B6304F7000044CDB798
:100F340019469305A10013052400C53EE31895FE48
:100F44000545C9BF138741A41C439306001094C3ED
:100F540001000100010001001C4323A00700834697
:100F6400150003482500A2064208C296034805005E
:100F7400C296034835006208C29694D7834655004A
:100F840003486500A2064208C29603484500C2967B
:100F9400034875006208C296D4D783469500034877
:100FA400A500A2064208C29603488500C2960348DB
:100FB400B5006208C29694DB8346D5000348E50079
:100FC400A2064208C2960348C5000345F500C2962E
:100FD4006205AA96D4DB83C6150003C52500A206C4
:100FE4004205AA9603C50500AA9603C53500620505
:100FF400AA9694CF83C6550003C56500A206420590
:10100400AA9603C54500AA9603C575006205AA966B
:10101400D4CF83C6950003C5A500A2064205AA96AF
:1010240003C58500AA9603C5B5006205AA9694D3A4
:1010340083C6D50003C5E500A2064205AA9603C5EA
:10104400C50083C5F500AA96E205AE96D4D3D44371
:10105400F59AD4C3D44393E61600D4C3944393E6D9
:10106400160094C3BA879443D842058B59E3984E2B
:1010740001452300E6009843184F2183A300E600AE
:101084009843184F41832301E6009843184F618326
:10109400A301E6009C43D84F2302E600D84F2183E6
:1010A400A302E600D84F41832303E600D84F6183AF
:1010B400A303E60098532304E60098532183A30472
:1010C400E600985341832305E60098536183A30502
:1010D400E600D8532306E600D8532183A306E6008E
:1010E400D85341832307E600DC53E183A307F600CA
:1010F400828001008DBF138781A41443411122C44F
:101104009C5E4AC006C6998326C2858B3A8413899D
:1011140041A4D1C79C5E975400009384641A93F74A
:10112400F7F99CDE175700000347E71993070008F7
:10113400631BF700832709009C4393F707041757A1
:1011440000002302F71883C7040093F707048DC334
:101154009387C1979C4382979757000023AAA716A9
:1011640083C7040093F7F70B17570000230AF714FB
:1011740083C7440093F707049DE38547175700008E
:10118400A302F714938741A59C43096798C71307E3
:1011940000FC975600002387E612D844F8D31C407D
:1011A400985F1183058B09CB985F3D9B98DF0547BA
:1011B400975600002388E610985F1D83058B11CB9A
:1011C400985F1377F7F798DF854717570000230BCD
:1011D400F70E83270900D8430583058B19C7D84325
:1011E400759BD8C3D843799BD8C3B2402244924458
:1011F400024941018280397106DE16DC1ADA1ED8F2
:101204002AD62ED432D236D03ACE3ECC42CA46C8A2
:1012140072C676C47AC27EC0F93DF250E25252538D
:10122400C2533255A255125682567247E24752486B
:10123400C248324EA24E124F824F216173002030B9
:10124400938741A59443975700009387670703C783
:101254000700058B11CB9757000023850706975786
:101264000000A3810706828003C71700058B65F77A
:10127400F85271FF83C75700DDB7138881A4032791
:1012840008001C5F9583858BD1E709C61C5BBD8371
:101294002300F60085CA83270800985B4607935706
:1012A40067016356070093E707C0C207C18303972A
:1012B4000600C207C18709C7BA970947B3C7E7023F
:1012C4002390F60085CD834715008DCB97560000FB
:1012D40083C666FF93F606041387970089478DCA71
:1012E4003A9503470500854699471376F706631137
:1012F400D60262076187B947634C07008327080059
:101304009C5FED838D8B17570000A300F7FC81478A
:101314003E8582808547EDBF411122C406C61384F1
:1013240041A518402DE9AE877453FDFE3E85B28574
:1013340097570000238707F897A001E0E780E08A29
:10134400938781A49C43B70680009843558F98C324
:10135400D857719BD8D797570000A38507F697579E
:101364000000A38F07F41C40094798C31440175783
:1013740000001307E7F483472700858B89EB834735
:101384003700858BD9C397570000238D07F2B240ED
:101394002244410182808D47631EF500938781A416
:1013A4009C43B70680009843558F98C3D857719BC8
:1013B400D8D76DBF8547E31BF5FA5447F977FD1776
:1013C400F58F5CC70F1000001C40096798C713070E
:1013D40000F8175600002307E6EE138781A4104394
:1013E400184231830D8B11E713076019F8D3D4C762
:1013F400B5BF1842094631830D8B6315C700130727
:10140400E043EDB71307E01BD5B7FC52ADF741B786
:101414005D71A2C4A6C22A84130680022800AE8489
:101424009305100886C6CAC04EDE52DCEFF06FEAA0
:10143400354597A001E0E780A0B7138381A48327F3
:1014440003009376F41F138EC1A523A40700984BC1
:10145400938E41A5370FFCFF1367F70398CBF84F22
:10146400130510F8B7020400137707E0558FF8CF7F
:101474009843F576FD16758F98C39843B7063300E5
:10148400930380251377F7E798C3984311497D1F89
:101494001377F7E71367071098C303270E008549EE
:1014A400930F80021C47D58F1CC783A70E00130718
:1014B400900D3400B8CB014793553700A69583C7E8
:1014C400050013767700B3D7C740858BE1C3832724
:1014D400030083280E00239C07042390070603A817
:1014E400C8021378D8FF23A6080383A8070013783B
:1014F400F70793F808F833E8080123A0070103A8C5
:1015040047023368580023A2070383A80E0001484A
:1015140023A2780603DA07066307480303A8070330
:10152400038A06001358F800620813588841635868
:101534000A0103A807031358F8002380060103D8FF
:1015440007061378F80F03AA480663060A0003DAAD
:101554008705E37F49FB03A847023378E80123A208
:10156400070383870600635CF40003C80500339611
:10157400C9001346F6FF337606012380C5003E8674
:1015840063D3A7002A86131586016185050713779F
:10159400F70F8506E312F7F3B6402644964406494E
:1015A400F259625A61618280938641A59C42D84770
:1015B4001316170163550602984713161701635053
:1015C40006027D57B8D717570000130767B3584F63
:1015D4000507175600002323E6B4116798C79847F8
:1015E4000D83058B1DCB17570000034787CD136769
:1015F4001700175600002306E6CC130700F8175609
:1016040000002301E6CC214798C7138781A4104327
:101614005856719B1367170058D69847058B0DC70A
:10162400175700000347D7C9136717001756000060
:10163400A308E6C8054798C7138781A410435856E2
:10164400719B1367170058D698470983058B09E7E0
:1016540098470583058B21CF98471756000013063A
:1016640026C6138581A40983058B630307101841DB
:10167400184331830D8B75EBAC4B184E93F5050273
:1016840003471700CDCD79EF13077006D8CF034772
:10169400060013671700175600002303E6C211471C
:1016A40098C718415C57F19B93E717005CD79C429D
:1016B40098479316370163D606029756000083C6EF
:1016C400E6D3C18A175700001307C7CBC5CE03471B
:1016D400870713670702975600002381E6D2056740
:1016E40098C798479316270163D10602175700003D
:1016F400034747BD6207618763570700054797564D
:1017040000002381E6BC096798C798479316070130
:1017140063D606029756000083C656CE858A1757AD
:101724000000130727C6ADCE0347970713672700AA
:1017340097560000A384E6CC216798C7828029D7F6
:1017440085456315B7001307B00689B78945631546
:10175400B7001307F0061DBF8D456315B7001307C7
:1017640030072DB71307500715B71307600739BFA4
:10177400034736001367170017560000A303E6B4A7
:10178400094739BF834687070946BD8A6388C6006F
:10179400034787078D463D8BE313D7F4114725BFD5
:1017A40083469707918AC9DA034797071367870027
:1017B40041B7397106DE16DC1ADA1ED82AD62ED4C1
:1017C40032D236D03ACE3ECC42CA46C872C676C46D
:1017D4007AC27EC0D13BF250E2525253C2533255C8
:1017E400A255125682567247E2475248C248324EB8
:1017F400A24E124F824F216173002030938741A57E
:1018040098438567938707777CD39387C1A59C43C7
:1018140083A60709139656006358060083A6070992
:1018240013966600634406007453FDF2828061C11E
:10183400AA870145DDCD8D07C207C183F19BC2078D
:10184400C18313074003636BF702138741AE084358
:101854001387C1AD14436396A602175700001307FC
:101864006786185B014551C74111C20706C6054585
:10187400DD8D0297B240014541018280138701AE9C
:10188400F9B70357650035E303574500636FF70461
:10189400B306F7402146637CD602032805009386ED
:1018A40087001D8FAA966117175600000356A68558
:1018B4002392E60023A006012393060014C12312F9
:1018C400F500130786FF97560000239EE682231334
:1018D400B5009755000083D50583B387F5401757A6
:1018E40000002312F782210582800841ADB701452B
:1018F4008280828009CD938741AE03A3070093873A
:10190400C1AD83A8070081469A8763E317018280EB
:1019140003A807006369F50A6367A80A13878700A9
:10192400E367E5FE03D66700216705076317E60052
:1019340003C7C1A10507238EE1A097450000938545
:10194400257C03D6470003D765002393070032970D
:1019540042074183174500002317E57A638867022D
:10196400138501AE08416303F50203D5660019ED42
:1019740083D7460023A0060121073E962106239221
:10198400C600974700002390E778B6879843E300A2
:1019940017F9938601AE9442E30BD7F6835667009A
:1019A400BDF683D64700035647001843A106B296F6
:1019B4002392D70098C383D76500A1071747000077
:1019C4002313F7748280BE86C28781B703278511EB
:1019D40063020712411122C406C68347C50083452A
:1019E400E5042A8493F7C70F2306F500834697007E
:1019F4000356C70013958601618563F2C508635BCE
:101A040005060345870093F6F607A304D7000546A9
:101A140093E627006314C50093E617002306D40059
:101A24005C4389075CC3A30AB400032504112E8612
:101A34004C430905EFF06F86832784110346540154
:101A4400D44303D7C700B296118FD4C32396E700BB
:101A54008947A30DF400034764039747000083C735
:101A640087676378F7048347C40093E70701230675
:101A7400F40081A093E717002306F4006DB7937672
:101A8400F60F635D050203458700854513E62700CD
:101A94006314B50013E617002306C400A30AD40098
:101AA400A30407008547A30DF400832784119C43F6
:101AB400DDF3B240224401454101828093E71700DF
:101AC4002306F400A30AD400A30407000325041189
:101AD4004C430905EFE07FFC83278411034654013E
:101AE400D44303D7C700B296118FD4C32396E7001B
:101AF4008D4755BF05458280938741AF9C43411173
:101B040022C406C6858B2A84C5EF4165130525F5D5
:101B1400975002E0E780E08745C58347A500231579
:101B2400F50083270412BDE72320A4122322A41264
:101B340085472311F404232005008347640154419D
:101B44002316F5000347D4002304E5000547A30446
:101B5400E500174700001307A776184F13851702EF
:101B640015811C437D151375F50F9CC25C43DCC2C3
:101B74001C479CC65C47DCC61C4B9CCA5C4BDCCA3D
:101B84001C4F9CCE5C4FDCCE19CD93860602130706
:101B94000702C1BF8327441288C383572404232226
:101BA400A412850779B79747000083D7277E850756
:101BB40017470000231CF77CB24022444101828075
:101BC4008347C40023090400054593C7470023063F
:101BD400F400DDB78347850193F7E70FC5EF83472B
:101BE4009501CDEB034625018346C50009CA83450B
:101BF4006503174700000347174E63E7E50013F733
:101C0400060151CB014709C6C18A0357651C81C629
:101C14008356A51C369741C31307C7121745000006
:101C24000355C552B335A70237460F0041111306B9
:101C34000624814622C426C206C67D543305A70263
:101C4400978002E0E78000809747000083C7174928
:101C5400B384A700974700009387C77203A7870937
:101C64008327070963F387003E84184375FB938732
:101C7400C1979C43829781476364A400B307A4403F
:101C8400B2402244B3B7970093C7170092443E85ED
:101C94004101828081473E858280938741A5984394
:101CA4007C53FDFF8280797126D206D622D44AD095
:101CB4004ECE52CC56CA5AC85EC683475503034417
:101CC4007513AA843E941374F40F9307400263F6C9
:101CD40087001304B4FD1374F40F03AA841383AAB6
:101CE400C413A38B841222865285D685977002E092
:101CF400E780C06F058915E503CBD41201498149FA
:101D0400337B6403930B50024A865285D6859770C1
:101D140002E0E780A06D058915C56391690313741A
:101D2400F90F238B8412B250225492540259F2496F
:101D3400624AD24A424BB24B456182808509E2092C
:101D440093D989410509E31179FDE1BF8327850909
:101D540003560504797193D60701BD8EC206C1826C
:101D6400358E1357764093575640898B058B5D8F7C
:101D740093573640918B5D8F93571640A18B5D8F9F
:101D840093171600C18B5D8F9317360093F70702E4
:101D94005D8F931756009355860093F707041E062C
:101DA4005D8F1376F60F518F93D7554013D6354078
:101DB400118A898BD18F13D67540D18F13D61540D4
:101DC400218AD18F13961500418AD18F139635003D
:101DD40013760602D18F13965500137606049E05DA
:101DE400D18F93F5F50FCD8FA20745465D8F33074D
:101DF400C70222D42A8426D252CC56CA032A841378
:101E0400832AC4135AC806D6369742074183935788
:101E14007740135557400989858BC98F135537402F
:101E24001189C98F135517402189C98F13151700BC
:101E34004189C98F1315370013750502C98F13150E
:101E4400570093558700137505041E07C98F137730
:101E5400F70FD98F13D5354013D755401189098B06
:101E6400498F13D57540498F13D515402189498F62
:101E7400139515004189498F139535001375050293
:101E8400498F13955500137505049E05498F93F5E5
:101E9400F50F4D8F2207D98FB387C7024AD04ECE94
:101EA4005EC662C4B697C207C18313D7774013D501
:101EB40057400989058B498F13D537401189498FBC
:101EC40013D517402189498F139517004189498FEC
:101ED4001395370013750502498F1395570093D551
:101EE4008700137505049E07498F93F7F70FD98F61
:101EF40013D5354013D755401189098B498F13D514
:101F04007540498F13D515402189498F13951500C4
:101F14004189498F1395350013750502498F13952F
:101F24005500137505049E05498F93F5F50F4D8FE4
:101F34002207D98FB387C702130650025285D6856C
:101F4400B697BD8E93940601C18033F6C402137B09
:101F5400F60F977002E0E780604905890DED83472D
:101F6400D41201498149B3849702130C5002C180F1
:101F74004A865285D685977002E0E7802047058916
:101F8400937BF90F11C563863403850993F9F90F1F
:101F94000509E31F89FD230B6413B25022549254A4
:101FA4000259F249624AD24A424BB24B224C456131
:101FB40082805E8BCDB7797122D406D683C7350073
:101FC4002E8423160100A307F10083C745001008DF
:101FD40002C02307F10083C755008A8502C2A30605
:101FE400F10002C402C802CA02CC02CEEFE09FF59F
:101FF4000347F1018347040001456310F7020347D7
:10200400E1018347140001456319F7000345D10139
:10201400834724001D8D13351500B25022544561A9
:1020240082800111974700009387C73522CC03A40F
:10203400870C26CA4AC84EC606CEAA8413092500B0
:10204400854915C083C7140003473400858B630496
:10205400F700405CFDB71946930544004A85EFE05C
:10206400DFACE31835FF2285F2406244D244424992
:10207400B2490561828041119747000093878730F8
:1020840022C403A4870C26C24AC006C693042500B2
:10209400054901E82285B2402244924402494101A3
:1020A4008280A6851305A4023937E30525FF405C29
:1020B400CDB74111974700009387C72C22C403A4CE
:1020C400870C26C24AC006C693042500054901E8C8
:1020D4002285B24022449244024941018280A6856D
:1020E4001305A401C93DE30525FF405CCDB70000FD
:1020F400971100209381C12617610020130141F03C
:102104001305400097E5FF1F938585EF1706002010
:10211400130606FE63FAC5008322050023A05500BA
:1021240011059105E3EAC5FE17950600130545F967
:10213400970500209385C5FB1386018963FAC500C2
:102144008322050023A0550011059105E3EAC5FE8D
:102154001385018997450020938545356377B5003C
:10216400232005001105E36DB5FEFD42739002BC0A
:102174008D4273904280930280087390023097E2FC
:10218400FF1F9382E2E793E23200739052303717D5
:102194000040930770052300F704930780FA230097
:1021A400F7040F1000003C47B70600FAE116F58F5C
:1021B400B70600069506D58F3CC7970200009382A8
:1021C400424F73901234730020303D432A87637367
:1021D400C3029377F700BDEFADE5937606FF3D8A22
:1021E400BA960CC34CC30CC74CC74107E36BD7FE6C
:1021F40011E28280B306C3408A06970200009696D5
:102204006780A6002307B700A306B7002306B7001C
:10221400A305B7002305B700A304B7002304B70040
:10222400A303B7002303B700A302B7002302B70038
:10223400A301B7002301B700A300B7002300B70030
:10224400828093F5F50F93968500D58D93960501BD
:10225400D58D61B7939627009702000096968682E3
:10226400E78086FA9680C1171D8F3E96E374C3F803
:10227400A5B782803D897D15954763E6A71AB7B750
:1022840002009387C70F0A053E951C41011122CC19
:1022940006CE2E8482872C0013054030EFE0310BEC
:1022A4002C000545EFC0105A37B50200130545143C
:1022B400EF7042742DA003C725008D476311F70208
:1022C40037B5020013054515EF70C272B7570020E9
:1022D400938787380547A386E70023870700F240E2
:1022E40062440561828003C725009547E319F7FE20
:1022F40083D5A500035704012394B180239AB19296
:10230400938741930356E4002392E7000357240183
:1023140037B50200130545162393E7002391C70040
:10232400EF70025903C51192130600649145EF80C2
:10233400F01903C5A1800D66130606209145EF80B0
:10234400F01837B5020013058517EF70A26AB75766
:102354000020094793878738A386E700238707006F
:1023640003C52181130600508545EF80301637F4EC
:1023740000E008444C44EF70A2681044544437C54C
:1023840002001305C5B2EF70A2520145C92E81BFE8
:1023940003C725008D47E314F7F437B5020013058E
:1023A400451839B783C7250011476399E70037B546
:1023B40002001305C519EF70E2631DA81947639362
:1023C400E70403C511929145EF80D0318345640041
:1023D40037B502001305851BEF70824DB7570020F7
:1023E400938787380545A386070023870700852E32
:1023F400854730008545130550302304F100EFE094
:10240400D104F1BD1547E395E7FE37B50200130586
:10241400451D55B783C5250037B502001305C51EF4
:10242400EF7002496DBD8280797122D44AD04ECEBC
:1024340052CC06D626D256CA5AC85EC62A892E84DB
:10244400BA893E8AA5EA8D679387D7A4328B63172E
:10245400F60289476394F502835A070037B50200F0
:102464001305C512EF70C244814493FAFA0FB7BB47
:10247400020063C754032945EF708247A2852254A2
:1024840083C60900B2509254F249D24AB24B5287E1
:102494005A86624A424B4A85025945616F60B0428E
:1024A400B3079A0083C507001385CB138504EF7027
:1024B4002240C1B70548639006032254B250925497
:1024C4000259624AD24A424BB24BCE86F2493E8707
:1024D40045616F60F0448947639CF6026397050188
:1024E40009E5B7570020238BB73803C5A18013062D
:1024F400401F8945EF80807DB25022549254025986
:10250400F249624AD24A424BB24B0145456182804C
:102514008D47E393F6FEE39105FF79FDB75700205D
:10252400238B0738D1BF41119397050122C406C6F6
:10253400C1872E8463DF070003C5A180EF802030AC
:1025440019C1EF80A0282165218DB24022444101A8
:10255400828093F7150013C51500E5FB93F745003A
:1025640099CF83C7A18003D581801307800C81464E
:1025740021469945EFE0C13C13454400F9B793F770
:1025840085009DC303D5818001478946094681455D
:10259400EFE05119AA8537B5020013054511EF7014
:1025A40022311345840055B793F725000145D1DF47
:1025B40013C5250059BF01113725000022CC13058E
:1025C400A55206CE26CA1384A180EF809035854497
:1025D4002300A400700085451305503023069100A4
:1025E400EFE0A16683D5218C375600201306868C34
:1025F40013056030EFE0616583D5418C37560020C8
:102604001306868E13057030EFE021643726002010
:102614001306060FD5450145EFD060498D4770007C
:102624009145130570402305F10023049100A3058F
:10263400910002C6A3040100EFD08141300085451A
:1026440013050040EFD0C1401306910085451305E2
:102654001040EFD0E13F1306A1008545130520404B
:10266400EFD0013F1306B100854513055040EFD06C
:10267400213E99477000854505452306F100EF503A
:10268400F027EF60F012B72500203735002093853E
:102694008510130505B6EF606059034504008545B0
:1026A400EF80804BF2406244D24405618280411144
:1026B4001305800406C697E0FF1FE78000AD93056D
:1026C40000080545EF706002371700408327870C28
:1026D400B70620008D45D58F2324F70C370520003D
:1026E400EF60506E3715070013050580EF70704DCD
:1026F400B7470040130770F82381E7C00D47A38153
:10270400E7C013070004A380E7C0B7B5020005477C
:1027140037B502002387E7C09385C51F13058520BD
:10272400EF70021937B506001305C59AEF70822CB5
:10273400EF20B019EF10F035EF60704DEFE0C17E7F
:10274400EF60203B8D3DEF20B05737B502001305F5
:102754004521EF70222A97E0FF1FE78080931DE553
:10276400B747002037B7020093870767130707238B
:10277400D8C737B702001307072298CB1147D8C32D
:10278400414723A407002390E70082808547631212
:10279400F502B747002037B702009387076713078E
:1027A400C724D8C737B702001307072498CB0D47AF
:1027B400F9B70D476312E502B747002037B70600A3
:1027C40093870767130747EFD8C737B70600130780
:1027D400C7EE98CB094765B711476316E50037473D
:1027E40000202318F7668280938741899843630FFA
:1027F400A704411122C406C688C337240040834776
:10280400044093F7B70F2300F44015CD2A8637759B
:10281400DC028146130505C08145EF603242420562
:1028240041812326A44083C7B1803345F502232880
:10283400A4408347044093E747002300F440B24098
:1028440022444101828023280440E5B7828041115B
:1028540022C437440020130404678357040006C6C7
:1028640026C213F7170001CB23100400B240224400
:1028740092444101828013F707016DDB18445440F0
:1028840093840189636AD700BD9B2310F400232439
:10289400040023A00400D9BF5C440A073E97084300
:1028A400A13794401844938716009CC01C48131603
:1028B4002700B2979043AD47B387C7028583E3E708
:1028C400F6FA050723A0040018C44DB7B747002043
:1028D40001452398076609BF411122C42A84218136
:1028E40006C6EF7090461375F40F2244B2404101BE
:1028F4006F70B045411122C4371400400327C40C43
:1029040026C2C16406C6458F2326E40CEF70F0434B
:102914008327840CB240C58F2324F40C22449244B0
:1029240041018280011122CC2A841305A00206CE23
:1029340036C22EC632C47D3F1305140042054181C0
:10294400613F2246050613150601418171371305BF
:10295400B0024D37B245E905139505014181AD3FFC
:102964009246E906139506014181BD376244F2405F
:102974001305C0020561BDBF4111454506C69D3F13
:1029840013051002853F1305100BAD371545EF7085
:10299400D03B1305A003EF70503B1305A003EF7069
:1029A400D03A1305200BB9371545EF70103A1305CB
:1029B400A003EF7090391305A003EF7010391305CD
:1029C400300B0D3F1545EF7050381305A003EF7021
:1029D400D0371305A003EF7050371545EF70F0366C
:1029E4001305A003EF7070361305A003EF70F035E4
:1029F4001305400B01370D45EF7030351305000CFE
:102A0400D53D13052006EF7050340945EF70F033BF
:102A14001145EF7090331305100CE93D1305000CBC
:102A2400EF70B0321305200CF1353545EF70F031FD
:102A34000145EF7090311305300C6D3D1305D0083E
:102A4400EF70B0301305A006EF7030301305400C62
:102A540055351305D008EF70502F1305E00EEF70B5
:102A6400D02E1305500C79353945EF70102E13050F
:102A7400000E49354145EF70502D3945EF70F02C6B
:102A84000945EF70902C0D45EF70302C3945EF70EF
:102A9400D02B1D45EF70702B0945EF70102B1D4591
:102AA400EF70B02A2945EF70502A4945EF70F0299C
:102AB40013057002EF70702913057003EF70F0288E
:102AC4000145EF7090283545EF7030283945EF7097
:102AD400D0274145EF7070271305100E213D414565
:102AE400EF70B0263945EF7050260D45EF70F02594
:102AF4000D45EF7090253D45EF7030251945EF7079
:102B0400D0240945EF7070242145EF701024294525
:102B1400EF70B0234D45EF70502313056002EF7042
:102B2400D02213056003EF7050220145EF70F021AD
:102B34003545EF7090213945EF7030214145EF70F4
:102B4400D0201305A0037D331545EF701020130525
:102B540060034D331305800AEF70301FB240130534
:102B64009002410141BB01112317A1001306F00992
:102B740081459306F004014506CE6D3305669967D9
:102B8400130606FA854593870740B28E37470040FF
:102B940085481D43374E0040BE866373F600F686B3
:102BA4000345070013980601135808011375F50E21
:102BB4002300A7002316D70023031701C28695E23A
:102BC4008346770093F6F60FE5FEB3870741C20705
:102BD400C183F9F30357E100F2402396E1800561D4
:102BE400828003457700E36CA3FC08082E95034517
:102BF400E5FFFD16C2062308AE0093C51500C18289
:102C04007DBF411122C4AE8632842A8606C6193B92
:102C140022852244B2404101C1B1011122CC4AC8EB
:102C24004EC652C456C206CE26CAAA892E84328AF9
:102C34003689BA8AC53963768902F2406244D2443D
:102C44004249B249224A924A0561828085045685E6
:102C5400C2045931C180E37B9AFE050442044180D9
:102C6400D9BFCE84CDBF397122DC4AD85AD05ECECA
:102C740062CC06DE26DA4ED652D456D266CA330465
:102C8400A6402A8BAE8B3389B640054C634780003F
:102C9400014C01C43304C5407D5C854C634820016C
:102CA400814C6305090033098040FD5CA2846353B1
:102CB4002401CA84814A014A814963DF3401F25004
:102CC4006254D2544259B259225A925A025BF24B7C
:102CD400624CD24C2161828093950B0113150B0138
:102CE4003A86C18141813AC6229A213FCA9A324723
:102CF40063D54401330A9A40629B63D55401B38A75
:102D04009A40E69B8509C20993D909017DB79307C7
:102D1400800963E5A70E797122D406D626D24AD05B
:102D24004ECE52CC56CA5AC85EC6930700042E84AF
:102D340063EBB706B284B689130675009386F50073
:102D4400C20642068114C182418293F4F40FB7BAD9
:102D540002002A8B3A899204F136938A8A25639F6A
:102D6400090403D7C180138BC180631627019337ED
:102D740019002310FB008149C14BB3873401D69756
:102D840003CA0700214493771A004A8599E303553F
:102D94000B007D141374F40F8136135A1A0065F472
:102DA4008509E39C79FDB250225492540259F249A8
:102DB400624AD24A424BB24B45618280130A0401F3
:102DC400420AD694135A0A01A14B83CA04008149CA
:102DD40093F71A0081CB33053B0142054A86A2854D
:102DE40041810535850993DA1A00E39379FF0504D7
:102DF400420441808504E31A44FD75B782800111C1
:102E040022CC26CA4AC84EC652C406CE2A84AE84F0
:102E14003289B689130A00090346090009EAF24017
:102E24006244D2444249B249224A056182806376AF
:102E34008A00C104C204C1800144228521044E8752
:102E44008146A6854204E13541800509F1B70111A7
:102E540032974AC852C413190701416A22CC26CAC0
:102E64004EC656C25AC006CEAA84AE89B68A3284E9
:102E740013590901130B0004130A0A808347040041
:102E840091C793170401C183631CF900F2406244A3
:102E9400D2444249B249224A924A024B0561828095
:102EA40063763B015285C131814981440346040064
:102EB4002685A10456878146CE85C204893DC180FA
:102EC40005046DBF411126C24AC0AE8432898145D2
:102ED4001306C00206C622C42A84EFF00FAF93077C
:102EE4000008230424012311F40044C04A85829479
:102EF400835724003E05B240C607C583C98F13C754
:102F0400F7FF3D837175058B7D153A07E98FD98FDE
:102F14002311F400224492440249410182808A052B
:102F2400AA95D0C58280084151813D898280411192
:102F340022C406C65C412A84030585008297835710
:102F4400240093F7077091C7835704008507231063
:102F5400F40014400357240093D7F6016386A704B2
:102F6400ED82850671769D8A1306F67F9395B600E9
:102F7400B377E600CD8F2311F40081CAC6073E055E
:102F8400C583C98FF18F2311F4001C40954613D7D4
:102F940087011D8B63EEE604B7C602000A07938619
:102FA4008684369718430287F1779387F77F7D8F5E
:102FB4002311E400D9BF0357240093D6E701858A7F
:102FC400FD831377F7F06391D7025C442311E40087
:102FD40099C3228582971840B707F0F8F98F37070D
:102FE4000101D98F1CC029A0136707082311E4002D
:102FF400B24022444101828013D7E701058BFD834F
:103004006385E7028357240093F7F7F093E70701FA
:103014002311F4001C4899C3228582971840B707EE
:10302400FFF8F98F370700026DBF035704009307B9
:10303400D014E3FFE7FA8357240093F7F7F093E7FC
:1030440007052311F4001C5099C3228582978357E6
:10305400240093F7F78F93E707502311F40049BF37
:1030640013D7E701058BFD836395E7048357240099
:1030740093F7F7F02311F4005C4499C322858297F7
:10308400835724003D4793F6F7006389E6001387CE
:1030940017003D8BC19BD98F2311F4005C4899C361
:1030A400228582971840B707FFF8F98F3707000386
:1030B4000DBF0357040093072004E3FBE7F2835793
:1030C4002400854613F7F7006311D70293F7F7F04E
:1030D40093E707032311F4001C4C99C322858297BC
:1030E4008357240093F7F78F8DBF8946E31AD7FEE1
:1030F40093F7F7F093E707042311F4005C4CF1BF56
:1031040013D7E701058BFD836385E702835724000A
:1031140093F7F7F093E707012311F4001C4899C3D0
:10312400228582970357040093071004E3F8E7EE1F
:1031340045BF0357040093072004E3FBE7EA8357E2
:10314400240093F7F78F93E7071001BF0357240078
:1031540093D6E701858AFD831377F7F0639FD70041
:1031640003234402136707062311E400E30203E880
:1031740022852244B24041010283136707012311CF
:10318400E4001C4899BF83A6818993878189368787
:1031940009E714D588C3014582806304A700185742
:1031A400C5BF7D558280411122C403A4818906C60E
:1031B40009E4B24022444101828022858D3B0054BF
:1031C400C5BF03C6818A054883C7418A83C6C18AAD
:1031D4009385418A1385C18A630B060145CE09474D
:1031E400630DE6080D47630FE60001473DA0E38E3B
:1031F400D7FE63F7D700850793F7F70F054731A884
:10320400FD17DDBF1306300601476366F600850728
:1032140093F7F70F054763E1F60801468548238EC7
:10322400118919C22300D50019C32380F50083C76F
:1032340005007D7713071789B387E7021307400654
:10324400B3C7E70205671307F776BA971387018AAE
:1032540014436383F6021CC3B727004083C60700E8
:1032640093F6B60F2380D700184398CB03C7070003
:10327400136747002380E7008280014789C7FD1751
:1032840093F7F70F0547E3FAD7F8B68705470546DE
:10329400814669B7B6879DB7B68705470546930645
:1032A4004006ADBF9307400663F8B700930780FC60
:1032B400B385B74093F5F50F9387C18AAA97238006
:1032C400B70082801387818A9387418A2A97AA97B5
:1032D4002300B7002380C70082809307800C937576
:1032E400F50F63F4A7009305800C014565BF83C700
:1032F400018B33D5A74005898280397106DE22DC33
:1033040026DA4AD84ED652D456D20D478D47636337
:10331400A700AA8713F4F70F1410375900201317C6
:1033240024009304893802C802CA02CC02CE36971C
:10333400032707FFA380F40023960402371A0040F2
:103344008327CA0CD8C837070200D98FA16A23265D
:10335400FA0C1385FAFFEFF01F819044930740069F
:1033640003C7C400B366F602B7C502009385858916
:103374000A85C169130989383346F602EF60C26DC4
:10338400E17793C7F7FF9386F9810A868145214542
:103394002396F180EFF0BFA6032A4A0A1387FAFFA7
:1033A400B94613067006854513058005EFF0FF86C0
:1033B40093172A0163C2070A1307007E9146130676
:1033C4002006914513058005EFF0FF891307007E61
:1033D400B14613062006B14513058005EFF0BF88FA
:1033E4001307007EB1461306800591451305800539
:1033F400EFF07F871307007EB14613062006914540
:1034040013052006EFF03F861307007EA54613063A
:1034140050069D4513053006EFF03F80138709FEE3
:10342400A5461306B00595451305E005EFF0BF83E7
:10343400138709FEA5461306E005A5451305B00547
:10344400EFF07F82138709FEB5461306C005A54534
:103454001305E005EFF03F81E17793C7F7FF23966B
:10346400F180EF3030476DC1B7C502009385858A7E
:103474000A85EF60C2620A85EF608263E157330513
:10348400F50241699306F9810A868145C14437CA28
:1034940002001309098093090005130585094205F3
:1034A4004181EFF0DF9513171400B76700201377FD
:1034B400F70F23A407AC13162700938787ACB7260E
:1034C4001080050723A2070023A4070023A60700F2
:1034D40023A8070023AA070023AC070023AE070094
:1034E4003E96938606080A07BA9714C294C39307B4
:1034F40000053304F402B7570020938787BC1304F4
:1035040004643E9483470400A9CF5147CA862286A7
:10351400A6852145EFF0BF93C104C204C1805104C4
:10352400E39234FF371700408327870CF25062542C
:10353400B7060200D58F2324F70CD2544259B2594E
:10354400225A925A216182808347E90091E7B7C5E4
:1035540002009385458929BFB7C502009385058973
:1035640001BFFD461306CA8AA6850145EFF03F89CF
:1035740065B7011122CC06CE26CA4AC84EC62A8493
:10358400EFF07F9A994763ECA706B7C702009387C9
:1035940007860A053E951C41828762442389018A75
:1035A400F240D2444249B249A388018A05616F10AE
:1035B400307003C5218193050010EF70B01203C76A
:1035C400218B375400201389218B9384118B13048E
:1035D400843805C383C7040003472401D98F91EBC2
:1035E4008347140199C703C5218193050020EF7017
:1035F400A056A30804002300090023800400F2401D
:103604006244D2444249B24905618280B7570020DE
:103614009387873803C51700130710102391E70019
:1036240005050D890547A380A700238CE700B7672C
:10363400002023A407AC938787AC23A2070023A40C
:10364400070023A6070023A8070023AA070023AC2A
:10365400070023AE0700553103C521810566130613
:10366400069691656244F240D2444249B2490561EA
:103674006F70C06503C521810547A1452389E18A8F
:10368400EF70804D0966130606F49305001003C518
:103694002181C9BF9387118B03C707002DF383567C
:1036A40004001307F07CE37CD7F405472380E7008C
:1036B400B7570020938787382389E700372710807E
:1036C400A3880700238C070013070708B7670020A7
:1036D40023A4E7AC938787ACD8C398C7D8C798CB43
:1036E400D8CB98CFD8CF6244F240D2444249B249B1
:1036F40003C521819305000205616F70E045B7178A
:10370400004003A7470A1386018B834706002183E1
:1037140013471700058B8607BA9793F7F70F230013
:10372400F60037C5020005462397C18A81451386F2
:10373400018B01489386E18AD14837130040130571
:10374400C5879105639A1501630708002300F600F5
:1037540095472390F60082803308B50003280800BB
:103764000327430C86073377070113371700BA97EB
:1037740093F7F70F0548F1B78347050013073007A0
:10378400639AE70401114AC81319860122CC26CA98
:103794004EC652C406CEAE842A8481492E8A135959
:1037A400894101A8B307340103C52700CA858509E7
:1037B40009298347140063F3F400D28793F7F70FC2
:1037C400E3C2F9FEF2406244D2444249B249224A79
:1037D4000561828013074007639CE70011CA834791
:1037E400150063F3F500AE8793F5F70F0905B9AE3D
:1037F40082800D479377F50F6373A7008D471305F8
:1038040040060D47B387A7021375F60F6373C7000D
:103814000D45130700192E86930540063305E5026E
:10382400AA9737550020130585BC3E95B1B7011101
:1038340022CC06CE2A84EFF00FEF0304840009E5BE
:103844002AC6EF10F0463245B757002093878738D1
:1038540003C727008546631FD700A381E7000DE94E
:103864008D4763E787021375F40F6244F2400561E4
:103874006FF0BFA811EF03C617008D4763EAC700B6
:10388400933515001375F40F6244F240056195B742
:10389400F240624405618280011122CC3744002049
:1038A400130544681306C00D814526CA4AC84EC68E
:1038B40052C456C206CEEFE05F912388018A1304F6
:1038C40044688144373A0000B7490000914A3739C7
:1038D4000000268693052A2F2285EFF0AFDE13869B
:1038E400298381452285EFF08FE31386298385455B
:1038F4002285EFF0CFE263905405130669578145A2
:103904002285EFF0CFE11306695785452285EFF054
:103914000FE11306695795452285EFF04FE0130632
:10392400695799452285EFF08FDF130669578D4556
:103934002285EFF0CFDE2285EFF0FF84850493F734
:10394400F40F9394870115471304C402E184E392AE
:10395400E7F8F2406244D2444249B249224A924AC8
:10396400056182806F50D2744111B757002006C69A
:1039740022C493874787056723A00700130717907E
:103984002391E70037C702001307C7923755002079
:1039940023A40700D8C3130405881307F0031306F0
:1039A40020028145130505882394E700EFE0FF8199
:1039B400375500201306200281451305458AEFE0A0
:1039C400DF8085472300F4002244B240B74500203D
:1039D40037450020130600109385457713050576B7
:1039E4004101CDA101112306A10037450020A30602
:1039F400B10009466C001305057606CE192BF2407A
:103A040005618280B757002083C7578795E3B7576E
:103A140000209387078889C983C617000547331791
:103A2400A700558FA380E7003E95A309B5008280C7
:103A340005476398E702411122C4130405FE62049A
:103A4400618426C20545AE84A28506C6613FA6856B
:103A54000D45493FA2852244B240924409454101A3
:103A640051B78280B757002083C75787DDE771CDF0
:103A7400B757002013860788930866009386078843
:103A8400138707888387B60199E3A3810600B68765
:103A9400638BC7000388A70163170800FD17038819
:103AA400C701631508028506E39E16FDA38B018AF0
:103AB400814701489386718B194393F8F70F6392FA
:103AC400670263040808238016018280A38D07011E
:103AD40003C84700238E070023820700A381070140
:103AE40045BF034E3600B28E631FAE006304080068
:103AF4002380160189C5B306F700A381A600BA97EF
:103B0400A38DB7008280838EBE01138E1700050635
:103B1400E38E0EFCF28705484DB705476397E7022D
:103B2400411122C413148501618426C20545AE8463
:103B3400A28506C6453DA6850D456D35A285224460
:103B4400B24092440945410171BD828093F715004A
:103B54008DEB011122CC374400202AC413050476CE
:103B64002EC606CE41263246A2456368C50013051B
:103B740004766244F240056169AEF2406244056134
:103B840082808280B757002083C75787AA8691E72F
:103B9400B335B000B305B040B5B50545375700207F
:103BA4003315D5001307078862058307170061855D
:103BB40089C55D8DA300A70082801345F5FF7D8D27
:103BC400D5BF130705021377F70F9D4663E5E6009B
:103BD400130505F245BF375700200347578711E700
:103BE400B335B000B305B040B5BD375700201376E8
:103BF400750085479356350013070788B397C700A8
:103C04003697E20783063700E18789C5D58FA3017C
:103C1400F700828093C7F7FFF58FD5BF79714AD03B
:103C24003759002022D426D2130909885EC662C4FB
:103C340006D64ECE52CC56CA5AC866C26AC013843F
:103C4400418BB7CB02009384C18B130C3900B74965
:103C54000020854A8D4C114D13850976812E63FF12
:103C6400AA1283470400639A970183471400638868
:103C74000722FD17A300F4003DA20946A28513857F
:103C84000976892E034614008345040013850B8BA3
:103C9400094BEF50F241034A040063006A096305CB
:103CA400AA0DE31B5AFB034514008545193F8345C0
:103CB400140037C502001305458CEF50723F894646
:103CC40026868145138509765D26E31265F983C747
:103CD4001400834514006390F50283C70400639CB9
:103CE400A7009307301037C502002310F400130512
:103CF400458DEF50F23B03C704009147E319F7F4F5
:103D040083C514009307301037C502002310F40054
:103D14001305858EEF50D2391DBF0345140081452C
:103D24004D358345140037C502001305C58FEF5088
:103D34003238894626868145138509760D2EE31887
:103D440045F183C7140083451400E392F5F083C75B
:103D54000400E39E57EF9307301037C50200231089
:103D6400F4001305C5907DB73D4681456285A300E7
:103D74000900EFE08FC52146814513053901EFE0C5
:103D8400CFC41D4681451305B901EFE00FC437C503
:103D9400020013050592EF50F24555BD0347040098
:103DA4008D47E304F7ECB75400209387448703C995
:103DB400370037540020B75900204A8693050488F9
:103DC4001385498AEF5012219384448701CD9305CA
:103DD40004884A861385498AEF503222CA8513051E
:103DE4000488552E03C7140049EF9307048883C73A
:103DF40017001308048801461304048885482145E4
:103E0400830634016355D000FD16A309D4000303CF
:103E14003401B396C800E206E207E186E187631342
:103E2400030893C6F6FFF58F050693F7F70F05040D
:103E3400E318A6FCB756002093860688A380F600F4
:103E440019458307B8016355F000FD17A30DF80069
:103E54008307B80199E3A3010800C287BA8681CA1F
:103E64000386A70109E6FD170386C70115EE0507BA
:103E74001377F70F0508E316A7FC238FD18A238B4A
:103E8400E18AB250225492540259F249624AD24A07
:103E9400424BB24B224C924C024D4561828023002E
:103EA400040011B7D58F49B7A38DC70003C64700D7
:103EB400FD16238E0700A381C7002382070093F613
:103EC400F60F71BFAA87014589CF81CD19CA23A8EE
:103ED4000700D0C38CC323A6070023A4070005450D
:103EE400828082802A8705C51C41014595C35C43B5
:103EF40085C3544718476386E60063F7E600B307B3
:103F0400D7401385F7FF8280BA97958FDDBF0145AF
:103F14008280011106CE22CC26CA4AC84EC652C49B
:103F240056C259C183290500AA84638F090603294F
:103F34004500630B09062E8AA5C9328429C65D375C
:103F4400637385002A8421C083AAC40033095941BC
:103F5400637324012289338559014A86D285B309C2
:103F64002441EF509209639A0902B3892A01DC4083
:103F740063E3F90081499C4823A6340189C722865A
:103F84008545268582972285F2406244D24442497F
:103F9400B249224A924A0561828088404E86B3051E
:103FA4002A01EF509205E1B70144F1BF81470DC1E9
:103FB4001841814711CF544181CE504518456309BA
:103FC400E600B307E6406365C700B387C600998F70
:103FD4003E858280011106CE22CC26CA4AC84EC62E
:103FE40052C456C259C183290500AA84638F0906A5
:103FF40003294500630B09062E8AA5C9328429C604
:104004007537637385002A8421C083AA8400330929
:104014005941637324012289B38559014A86528523
:10402400B3092441EF50627D639A0902B3892A01DE
:10403400DC4063E3F90081499C4823A4340189C727
:1040440022868145268582972285F2406244D244A5
:104054004249B249224A924A056182808C404E8686
:1040640033052A01EF506279E1B70144F1BF011130
:1040740006CE22CC26CA4AC84EC652C456C225C948
:10408400832A05002A8963840A064441ADC0B289A3
:1040940039CE3684B9C22E8A113F637AAA048327A3
:1040A400890033054541D29763E39700858F637395
:1040B40085002A849D8C63739400A2842686B3852C
:1040C400FA004E85EF5062733306944019C6832577
:1040D400090033859900EF5042722285F240624410
:1040E400D2444249B249224A924A0561828001443B
:1040F400EDB7814701C91841814709C7544199C2A5
:104104001C45BA973E85828081470DC1184181477D
:1041140011CF504101CE54451845B387E64063673B
:10412400D700814763F4E600B307E6403E8582800A
:10413400411106C622C426C24AC031C11C41AA8408
:104144009DCF03294500630C09022E8495C1B93D16
:10415400637385002A849C44A29763E42701B38790
:1041640027419CC49C4889C722868145268582971D
:104174002285B24022449244024941018280014492
:10418400C5BF0347050085476316F70003471500BD
:10419400238CE18A8280B757002083C7678705474D
:1041A400AA86639BE700034705006318F704FD151F
:1041B400C20593061500C18101112EC636C406CE70
:1041C400EF205071A246B24501C9F24093F5F50FB4
:1041D400368505616F209079B757002003C757399A
:1041E40089476319F700F24013F6F50F8545056119
:1041F4006F401025F2400561828082804111814523
:10420400414506C6EF50C03189450145EF6060273E
:10421400EF60401E2390A18CAA8537C502001305C8
:10422400C596EF50E26837C502001305C597EF50F5
:10423400627CB7170040238C0704B240410182809E
:10424400411106C6EF60A02883D7018CB2403E9589
:104254004205418141018280011122CC26CA4AC80B
:1042640006CE2A8901448144631CB40033D58402F8
:10427400F2406244D2444249056142054181828050
:104284004A852EC605046D3FAA941374F40FB245F3
:10429400E1BF5971B7F5070081465008E10519459A
:1042A40086D6A2D4A6D2CAD0CECED2CCD6CAB75441
:1042B400002097C0FF1FE780A04783C784380346C8
:1042C400710183466101B7C502003E961376F60F6D
:1042D400938585986800A30BC100B7290020EF508F
:1042E400A2771385091E11466C001D05EF50E2509C
:1042F400375400209307C4BA83D747001389091E93
:104304001304C4BA6389070E372700201307871FD5
:10431400A302F700A1832303F7008355440037C5A4
:10432400020013054599EF50A258834764003725CE
:1043340000205546F1C7930564001305050F375453
:104344000020EF50824B130924BBB7C50200375538
:10435400002031469385C5A01305858EEF50E249B0
:104364003147375500202392E18C55461307858C3D
:1043740081471305858CB306F90083C6060093852F
:104384001700050791C6A300D700AE87E395C5FEC5
:10439400138717002300E500254713842700A30093
:1043A400E500C14763D88700856793870781231099
:1043B400F5004544B725002039469385851F22958D
:1043C400EF50A243B7C5020037B506009307E400D7
:1043D40049469385859A1305C59A2391F18C97C014
:1043E400FF1FE780807405E537C502001305C59BF0
:1043F400EF50426001A09307503C2312F40031BFF8
:104404009385091E1305050FEF50223F3DBFB7F6F4
:1044140000E0795798CAFD57DCCA0567B7E700E0A2
:1044240023A0E7101306F00290C223A0E7180F1090
:1044340000001306C0038145480897C0FF1FE780AA
:104444004069B7370020938707E73ECA8967938797
:104454000780231CF100B5472304F10283C7843885
:10446400B7F50700814613978700A167938707E094
:10447400998F3ECEB79700009387472CBEC4B79759
:1044840000009387072EBEC6B70701059387071060
:104494003ED09307B00F2312F10285472303F102A4
:1044A4008567938717D02315F102B7970000938788
:1044B40087793EDAB7970000938707323EDEB797D5
:1044C40000009387E72B7000E1051945BEC097C033
:1044D400FF1FE780E0258347F10003C7843837C511
:1044E40002001305059DBA97A307F1000144EF509C
:1044F400223C8D4937BA0200B7CA02001949631534
:10450400340503C684388345F10013850A9EEF50B1
:10451400223A0504E31524FF2945EF50623D58086B
:104524008147994670003E960346060085070507B5
:10453400A30CC700E398D7FED24791C70357810164
:104544008567637CF70001A07C00A29783C5070000
:104554001305CA13EF50C2356DBF4808EF60F03F32
:10456400AA8501C937C502001305C59EEF50423420
:1045740001A0B650265496540659F649664AD64ABE
:1045840065618280797126D24AD04ECE06D622D475
:1045940052CC56CA02C63307A600930700022A89E2
:1045A400AE89B28463DEE7009304000237C50200DB
:1045B400B3842441130585A1C204EF50A243C180F2
:1045C4002393018C116A1384618CFD5A8355040072
:1045D40063FC4501914670002D4597C0FF1FE7809D
:1045E4002015B2476393570583550400B1C581155F
:1045F400C205C1812310B400A6864E86CA952D45F6
:1046040097C0FF1FE780C0128355040037C502001E
:104614002686CA95130505A3EF5082298357040003
:10462400938707022310F4001DA083570400938787
:1046340007022310F40059BF268681454E85EFD02A
:10464400DFB837C50200130585A2EF50A23AB25075
:10465400225492540259F249624AD24A45618280F4
:10466400011122CC4AC84EC606CE26CA3307A6007C
:10467400930700022A89AE89328463DEE7001304BB
:10468400000237C5020033042441130585A1420406
:10469400EF504236418003D7618C91679384618CDB
:1046A4006364F702916601468145254597C0FF1F63
:1046B400E78000089375F50F37C50200130545A47C
:1046C400EF50021F2390040083D504004E86A28677
:1046D400CA95294597C0FF1FE780800583D504004C
:1046E40022866244F240D244B249CA95424937C54F
:1046F4000200130585A505616F50821B411122C478
:104704002E862E84AA85375500201305859006C66B
:10471400A388018CEFF0EFFF6308850037C5020022
:104724001305C5B1EF50022D2244B24003C52181C7
:10473400856541016F604042411106C6C137B240F0
:104744000547A388E18C4101828079714ECE83C7ED
:10475400C18C06D622D426D24AD052CC56CA5AC8C4
:104764005EC662C466C26AC0ADEBB75A002083C697
:10477400CAAA2388018C1307A00A9389C18C2E8AA4
:104784002A8B1384CAAA0149639CE6128346140047
:104794001307B00B3E896395E61283D4218D13066B
:1047A40000101389218D058E3305940063F3C50031
:1047B4002E86D294DA85C204EF502204C1802310DD
:1047C40099009307001063E8970222878D479306A8
:1047D400C00C1306D00D63E49704B25022549254D3
:1047E4000259F249624AD24A424BB24B224C924C91
:1047F400024D456182802254B25092540259F249CA
:10480400624A424BB24B224C924C024D1385CAAAC7
:10481400D24A13060010814545616FD01F9B834522
:1048240027006397D502834537006393C5020904C3
:1048340023A4818CF5172397F18C03C52181856509
:1048440093850580EF60403185472380F90071B777
:104854008507C207C1830507BDBFB3052B0183C705
:1048640005006392570383C71500639E77013306DF
:104874002A41328D6374CC00130600102285EF4068
:10488400D2772399A18D0509420913590901E366D9
:1048940099FC83D6218D22878D471306C00C93057E
:1048A400D00DE3FCD7F2034527006316C50003458A
:1048B4003700E30EB5F68507C207C1830507D5B7F0
:1048C4009304FAFF930AA00A930BB00B130C001085
:1048D4007DBF411106C6953D83C7C18C81C705477D
:1048E4002388E18CB24041018280011122CC06CEA2
:1048F40009472A8481476374B7008347250003C7A7
:10490400C18C0DC303C7018D85476314F7022EC6FE
:10491400EF20407CB24511CD22856244F24005610E
:104924006F205000130710086395E70003C7118D2B
:10493400E1BF22856244F24005616F400014F177C3
:1049440001119387A7BA2314F100F9772305A10075
:10495400A305B1009387C7DC2800994506CE23162A
:10496400F1006137F24005618280F17779719387B4
:10497400A7BA2316F100B757002006D693878738C5
:1049840003C7C7006800B545A307E1001307201358
:104994002318E10003C717002307010023090100BE
:1049A400A309E100D84B83C7F702230AE100A30A55
:1049B400F100B757002083C74738230BF100930752
:1049C400C0FCA30BF1009307D0FD230CF100313F91
:1049D400B25045618280397106DE22DC26DA4AD87B
:1049E4004ED652D456D28347050099EBBD3FF250C0
:1049F4006254D2544259B259225A925A2161828045
:104A040005472A84AE846392E70237590020594649
:104A14008145130529BBEFD04FFB1386F4FF9305A3
:104A24001400130529BBEF40525D03470400894776
:104A3400631EF700B75700201386F4FF9305140094
:104A4400138507BB239807BAEF40325B0347040082
:104A540091476313F700A12303470400930730072A
:104A64006311F7148347140005479387D7F893F726
:104A7400F70F636BF70A834724000D476366F72437
:104A8400034534006362A724130740063305E50297
:104A940013070019375900201306400681459389EE
:104AA400C4FFB387E7023E95930789BC3E95EFD0D8
:104AB400CFF193072006130989BC63F437019309E6
:104AC40020060345240083473400130A0019930A7F
:104AD4004006B38757034E869305440033054503C8
:104AE4003E9509054A95EF405251834734000347E8
:104AF400240083461400B387570333074703BA9748
:104B0400CA972380D7008347340003472400B38720
:104B1400570333074703BA973E990547B757002011
:104B2400A3003901238EE73A034714009307500783
:104B34006319F706834724000D476364F7060345AA
:104B440034006360A706D149130A0005B3874703FD
:104B540037590020130989BC5146930500023305D7
:104B640035033E95130505644A95EFD00FE60345DA
:104B74002400834734001386C4FF33054503B387F9
:104B840037033E95130505644A9563F3C9005146FE
:104B940093054400EF407246B75700200547238E23
:104BA400E73A0347040093070008631FF710A1477F
:104BB4006393F41C83471400639F071A034934006A
:104BC400834724008349440022093369F900834759
:104BD4005400A207B3E7370183496400C209B3E76D
:104BE400F90083497400E209B3E9F900EF30803732
:104BF400AA866309090019C563F6A900B3073541FC
:104C040063F0270337C50200CA854E861305C5A67F
:104C1400EF40124A854513050008EFF05FD2C1BB8F
:104C240013DAC900931A0A0193DA0A0137C502009C
:104C34004E86CA85D686130505AAEF407247568567
:104C4400EF30A02537C502001305C5ABEF40925ADB
:104C5400B7570020938787384E99054723A2370317
:104C640023A42703A386E702371900400327C90CAE
:104C7400B70902000145336737012326E90CEFD059
:104C84009FEE37C602009306007E130606ACE1458C
:104C94006145EFE0CF961D4633D6CA02B7C5020080
:104CA400D686938545AD6800EF40125B9306007E7F
:104CB4007000930580026145EFE06F948327890CAF
:104CC400B3E737012324F90C0347040093072008B2
:104CD4006313F70AA1476390F40A034714008D474E
:104CE40063EBE7089947B306F702034634008345AC
:104CF400240037570020130787BC22064D8E37C582
:104D040002001305C5ADBA962390C67883461400F5
:104D14000346540083454400B386F60222064D8EB2
:104D2400BA962391C67883461400034674008345DB
:104D34006400B386F60222064D8EBA962392C67894
:104D440083451400B387F502BA9703D7477883D60F
:104D5400277803D60778EF40B235B75700209387FA
:104D64008738054723960702238AE70203C5218172
:104D74008965EF50705E034504009307300863179C
:104D8400F506834514008D47E3E3B7C6B7C7830030
:104D94009387A7BA3EC699472308B100B385F502A5
:104DA400B7570020938787BC1946130511019385D3
:104DB4000578BE95EF407224EF30C01A9D673355D5
:104DC400F502BD4593578500230CF1009307C0FC01
:104DD4002315A100A30BA100A30CF1006800930705
:104DE400D0FD230DF100EFF05FB011B1930740083F
:104DF4006317F506AD476390F406034714008D4727
:104E040063EBE7043756002001474145130686BC8F
:104E1400A545B307E40083C627006373D500814624
:104E240083471400B387B702B297BA97238CD77815
:104E34000507E310B7FEB757002093878738054767
:104E4400238AE70203C71700834714006317F70494
:104E5400EF00D01F99A08545130540087DBB93073B
:104E640050086314F5048947639DF40283471400D2
:104E7400930630061387F7FF1377F70F63E3E60211
:104E8400375700202302F73837270020230BF72653
:104E9400B75700200547238EE73A814503450400B0
:104EA400ADBB8545130550088DBB93070009631BF3
:104EB400F50289476394F402834714002147636F22
:104EC400F70037570020232CF73A8345140037C5E1
:104ED4000200130585B0EF40B21D9DBF8545130543
:104EE400000925BB93071009631DF50289476396E2
:104EF400F40203471400C14763E1E702B7570020F7
:104F0400372710009387873813070708238C070077
:104F1400D8CF03471400D8CB49B7854513051009EA
:104F2400EDB9930720098145E319F5CE89476398C4
:104F3400F402034714008D4763E3E702B7570020E8
:104F440005472385E73803451400EFE00FBB03C58D
:104F54002181130600649165EF5050573DBF85458C
:104F6400130520095DB9375500202386018C1306EB
:104F7400001081451305C5AA23A4018C6FD0EFA4AA
:104F8400B755002037550020130600199385C591A5
:104F9400130585906FE01FF382806FF0AFDE41113F
:104FA40022C41164930504409306E07B0146254521
:104FB40006C697B0FF1FE780A077930504402244FC
:104FC400B240375600209306E07B130686BC294581
:104FD400410117B3FF1F6700A375411122C4375461
:104FE40000208357843826C2B75400202396F4BA8D
:104FF4009387C4BA83D5470037C502001305459982
:1050040006C6EF40F20A71469385C4BA0145EFF033
:105014002FE5130484388347440391C72244B240E4
:1050240092444101ADBFB240224492444101828086
:10503400AA87130710042E85B2856394E7006F4096
:10504400204E130720046394E7006F40A05782802A
:10505400011122CC26CA2E84AA84930700191305B1
:105064004006B387F4024AC837590020130989BCA3
:10507400B285368606CE3305A4023E954A95EF40A6
:10508400C27793972400A29713972700B72700208D
:1050940093878720BA978C432E852EC6EF405221E2
:1050A400D1473304F402930700052A86B245F2403F
:1050B400B384F4021304046426943305890062441F
:1050C400D244424905616F40427337170040832739
:1050D400870A05651D7113050580C98F86CEA2CC8C
:1050E400A6CACAC8CEC6D2C4D6C2DAC05EDE62DCE4
:1050F40066DA6AD86ED62324F70A8D45EF4040421B
:1051040037540020EFF05FE99305C4BA71460145B6
:105114009304C4BAEFF07FE883C704001147B7547F
:1051240000201304C4BA938484386361F722238073
:10513400F4008347140011699146700893050940EF
:105144002D45A380F40002CE97B0FF1FE780405E98
:10515400724737540020FD57130A84BC631BF71EA3
:10516400130584BC1306E07B8145EFD00F869307BB
:105174003002130484BC230EFA7A13094402B7C91B
:1051840002001305847925469385C9B92504EF40A7
:10519400C266E31889FEB7B906008D46138689F006
:1051A40081450145EFF0DFEA37B906008D46130665
:1051B40009F085450145EFF0BFE937C60200B9465D
:1051C400130686BA89450145EFF09FE837B4060017
:1051D4008D461306C4EF8D450145EFF07FE78D46FC
:1051E400138689F081450545EFF09FE68D46130649
:1051F40009F085450545EFF0BFE58D461306C4EF7C
:1052040089450545EFF0DFE48D461306C4EF8D456F
:105214000545EFF0FFE38D46138689F08145094586
:10522400EFF01FE38D46130609F085450945EFF0BD
:105234003FE237B606008D46130646F08945094518
:10524400EFF01FE18D461306C4EF8D450945EFF0DD
:105254003FE037140040EFE02FF1EF3090708327E8
:10526400840A09678545D98F2324F40A0965EF4028
:10527400202B89450965EF40203FB7E700E0370759
:10528400020023A0E7108327440A11678945B583E8
:1052940093C71700858B2387F4028327840A11653B
:1052A4000569D98F2324F40AEF4080278327440A11
:1052B40085450145B983858BA387F400930709E1EC
:1052C4009CD023880400EF4040428327C40A8D45C4
:1052D4001305002093E707202326F40AEF40402417
:1052E40081450145EF50003AB7270040130709777D
:1052F400D8C703C707001309F97601461377B70F18
:105304002380E70023A8270103C70700854501453B
:10531400136747002380E70003C70700136787006C
:105324002380E700EFD01FFA5145EFD01FFBF64072
:105334006644D6444649B649264A964A064BF25B29
:10534400625CD25C425DB25D256182802380040090
:10535400CDB3130684BC9306E07B930509402D4529
:10536400C169130B84BC130D84BC97B0FF1FE78085
:10537400203C130484BC814A130CF00FFD19A54B87
:10538400B7CC0200B7CD0200B7570020938787201F
:1053940033895701DA86114703C60600631B860169
:1053A40036851306400681453AC6EFC01FE23247F0
:1053B400AA8603460900631C8601232009002322D0
:1053C40009002324090023260900232809007D1746
:1053D4001377F70F5109938646065DFF03570D783F
:1053E4006314370123100D7803572D7863143701A4
:1053F40023110D7803574D786314370123120D7868
:10540400A285254601478146414803C585796378CD
:10541400A806850693F6F60F7D161376F60F850516
:105424006DF613098479638B760163097701254648
:1054340093858DBB4A85EF40E23939E5254693854E
:10544400CCB94A85EF40623B938A0A0513070014DE
:105454002504190D130B0B19E398EAF28347CA7B51
:1054640051476389E700FD1793F7F70F13073006D9
:10547400E371F7DE93073002230EFA7AD9BB49FDB4
:1054840005071377F70F49BFA28601474146938565
:10549400CCB903C586796378A6003385E500034556
:1054A4000500238CA67805078506E31477FF69BFFA
:1054B400856737570020938707E12324F73A8280D2
:1054C400376500001D711305E53A86CEA2CCA6CA45
:1054D400CAC8CEC6D2C4D6C2DAC05EDE62DC66DA20
:1054E4006AD86ED6EF50F0439384218113060005E9
:1054F40089452380A400EF50607D03C50400130692
:10550400000A8545EF50807C03C504001306E06360
:1055140093050008EF50807B371700408327870AE4
:1055240005640D46C18F2324F70A8565130510040D
:10553400EFF01FB08D4513050002EF40A00885452C
:105544004145EF40200885453D45EF40A00785458E
:1055540013050010EF30D07CEFE06F9AEFE0CFB38B
:1055640003C504001306C0099145EF502076EFE00F
:10557400FFC889450145EFE03FCE930790143305FA
:10558400F502130484B4B7540020938784381307B6
:105594004006930620FA1389218193848438334585
:1055A400850288C7130505EC3305E5028147634A84
:1055B400D5009307F005B347F5026354F70093074A
:1055C40040060345090013060005C1452386F4007F
:1055D400EF50C06F89650145EF40C012EF10200DF8
:1055E4000945EF10A01D0345090013064006930565
:1055F4000040EF50A06D371400408327840C0567EA
:105604008D45D98F2324F40C0565EF30B07BEFF082
:105614003F970327840CB70902008D453367370190
:105624002324E40C37050200EF30D0790327840CDF
:105634008D4513050020136707202324E40CEF3065
:1056440070780327840CC1678D455D8F2324E40C97
:105654004165EF303077930500100545EF40E008D1
:105664008D451965EF30107689452165EF309075C9
:10567400EF40F0670945EF40B06A0327C40C1545B5
:10568400136707202326E40C97B0FF1FE78080FAF6
:105694000327840C0545136707202324E40C97B0E3
:1056A400FF1FE78020F98327C40CB3E737012326C3
:1056B400F40CEFD06FAC21657D15EFD0CFCA03C7D2
:1056C40014008D4763F4E700A380040003C51400AD
:1056D400EFD0BFC2371700408327870CB7060200FC
:1056E400D58F2324F70CEF20205FEF205002AA85EA
:1056F4006309051237A506001305453FEF40421B19
:10570400EF2050069355450137A506001305454182
:10571400EF40021AEF2010059D65B355B50237A579
:1057240006001305C542EF40A21891659146700822
:10573400938505402D4502CE97B0FF1FE78040FFBB
:105744007247FD57631EF708372A0020130A8A247C
:105754001D4437CD0200657C996B930C0040130BFC
:10576400D004930994FF63C6890C931DC400E29D81
:10577400814793890B40CE8A63F43C01930A00402D
:1057840003250A0013960A01EE853E9541823EC622
:10579400EF20006AB247B3895941D69DD697E39C5E
:1057A40009FC1D04110AE31E64FBB757002093870C
:1057B40087BC3707080023A0E7781307470623A20E
:1057C400E77837076400050723A4E77841672507CE
:1057D40023A6E778130740062398E778EFF02FFC19
:1057E400034509001306000A8965EF50204EB727C8
:1057F4001000238A040293870708F6406644DCCC31
:10580400A14723AA04009CD84649D644B649264A4F
:10581400964A064BF25B625CD25C425DB25D2561E6
:10582400828083D5818137A5060013050540A181B7
:10583400F1B5CE861396C900856513050DAAEF4010
:1058440022074E85EF206065850931BFB7570020D8
:1058540013878738034717008D469387873863E398
:10586400E604905BA14663EFC602B7261000938658
:105874000608D4CFA546B306D7023757002013072E
:1058840087BC238C07003697329783468779414734
:105894006379D70037C702001307C7B93297834625
:1058A4000700D4CB82800111B7570020056706CECC
:1058B40093878738130707E1A387A7022AC698D3DB
:1058C400EFF0AF8AB24537A5060013050544EF3063
:1058D400327EF24005616FF07FF7B717004003A7EF
:1058E400870C1367070223A4E70C03A5470C03A73F
:1058F400C70C11811367070223A6E70C83A7470C83
:1059040005899183858B3E959387018103870700E1
:105914006306A7002380A7006FF0FFF882801301BD
:1059240001812322917E2326117E2324817E23203C
:10593400217F232E317D232C417D232A517D232851
:10594400617D2326717D2324817D2322917D232063
:10595400A17D9377250013010196AA84A9CB03C5E1
:10596400218141468945EF506036EFD09F8513C4AD
:1059740024001301016A8320C17E22858324417E91
:105984000324817E0329017E8329C17D032A817D2D
:10599400832A417D032B017D832BC17C032C817CD5
:1059A400832C417C032D017C1301017F828093773A
:1059B40045009DCF9387718D03C70700954663E427
:1059C400E60205072380E700EFD07FD3EFE00FA5C1
:1059D400EFD06FFD03C5218111469145EF50002F93
:1059E40013C4440079B723800700EFF01FEFE9BF29
:1059F400937705016381071603C521815D6613064C
:105A04000670C145EF50802C89450145EFE0DF84E5
:105A140093079014B307F5020567130787B4375942
:105A2400002093064006930520FA2A86B3C7E702AE
:105A340013078938130989381CC7938707ECB38780
:105A4400D702014763CAB7001307F00533C7E7025B
:105A540063D4E6001307400637240020B7C50200CC
:105A6400938585B2130584112306E900EF30D27EB5
:105A740093150501C18113058411EFD0BFEE0346D0
:105A8400C900B7C50200938505B313058411EF302F
:105A9400B27C93150501C18113058411EFD09FECED
:105AA400B757002003C74738B7270020238BE726C2
:105AB400832789005D479387A7EB6365F700094552
:105AC400EFC0FFC983278900130710119387D7FC00
:105AD400636FF700B7C50200938585B3130584117E
