:040000006F208015D8
:100004000000000000000000900000208A0400208E
:10001400A9BDF9F5900000200000000000000000D8
:10002400900000209000002000000000000000006C
:10003400900000200000000090000020000000005C
:1000440090000020940500209000002090000020E3
:100054009000002090000020520600209000002014
:1000640090000020C805002090000020900000208F
:100074007E050020900000209000002090000020C9
:10008400DE05002090000020900000209000002059
:1000940001A073270080218B9387818809CB732764
:1000A400008023A4E18898435D9B731007800100BE
:1000B400010037170040930670052300D704930608
:1000C40080FA2300D704010001008346B70493F6A5
:1000D400F60DA305D7042300070473260080944378
:1000E400A18AD18E7390068023A4018801000100A7
:1000F40093760502638406180347A700118B25E74E
:1001040073270080218B09CB7327008023A4E18807
:1001140098435D9B7310078001000100371700406E
:10012400930670052300D704930680FA2300D704AE
:10013400010001008346A70093E646002305D7008B
:1001440023000704F32600809843218B558F7310F6
:10015400078023A40188010001001307004B01005C
:1001640001007D176DFF73270080218B09CB732756
:10017400008023A4E18898435D9B731007800100ED
:10018400010037170040930670052300D704930637
:1001940080FA2300D704010001007D892314A700FD
:1001A400010001000100010023000704F326008080
:1001B4009843218B558F7310078023A40188010075
:1001C400010073270080218B09CB7327008023A4AF
:1001D400E18898435D9B7310078001000100371785
:1001E4000040930670052300D704930680FA230089
:1001F400D7040100010001000100B72600401306E6
:100204001005A383C68023000704F32600809843C7
:10021400218B558F7310078023A4018801000100EE
:1002240073270080218B09CB7327008023A4E188E6
:1002340098435D9B7310078001000100371700404D
:10024400930670052300D704930680FA2300D7048D
:10025400010001008346B70493E60608A305D7040A
:1002640023000704732700809C43A18BD98F7390CC
:10027400078023A40188010001008280937605048D
:10028400638B06140347A700418B25E7732700807F
:10029400218B09CB7327008023A4E18898435D9BBD
:1002A40073100780010001003717004093067005A2
:1002B4002300D704930680FA2300D7040100010029
:1002C4008346A70093E606012305D700230007040D
:1002D400F32600809843218B558F7310078023A445
:1002E4000188010001001307007D010001007D1752
:1002F4006DFF73270080218B09CB7327008023A413
:10030400E18898435D9B7310078001000100371753
:100314000040930670052300D704930680FA230057
:10032400D704010001009376F50193E60604231433
:10033400D700010001000100010023000704F32697
:1003440000809843218B558F7310078023A4018864
:1003540001000100130760046310E50473270080A3
:10036400218B09CB7327008023A4E18898435D9BEC
:1003740073100780010001003717004093067005D1
:100384002300D704930680FA2300D7040100010058
:10039400B72600400946B5B573270080218B09CBE9
:1003A4007327008023A4E18898435D9B7310078022
:1003B4000100010037170040930670052300D7049D
:1003C400930680FA2300D70401000100B7260040F9
:1003D400130620053DB573270080218B09CB7327B5
:1003E400008023A4E18898435D9B7310078001007B
:1003F400010037170040930670052300D7049306C5
:1004040080FA2300D704010001008356870093E695
:10041400060C2314D700C5BB411181460146814512
:10042400114506C6FD2CF3270080A18B9386818895
:1004340089CBF327008023A4F1889C42DD9B739031
:10044400078001000100B7170040130770052380DF
:10045400E704130780FA2380E7040100010003C7BF
:100464006704136717002383E704238007047327B3
:1004740000809C42A18BD98F7390078023A40188AC
:1004840001000100B240410182808146014681455C
:100494001145412CF3270080A18B1387818889CBD8
:1004A400F327008023A4F1881C43DD9B739007800D
:1004B40001000100B7170040930670052380D7049C
:1004C400930680FA2380D70401000100FD56239689
:1004D400D70223800704F32600801C43A18BD58F09
:1004E4007390078023A4018801000100F327008092
:1004F400A18B89CBF327008023A4F1881C43DD9BC7
:100504007390078001000100B7170040930670053F
:100514002380D704930680FA2380D70401000100C6
:1005240083C6670493E616002383D7042380070455
:10053400F32600801C43A18BD58F7390078023A4DE
:1005440001880100010001A0BD473305F502010047
:100554007D1575FD8280411122C426C206C6AA8477
:10056400014463179400B2402244924441018280C2
:1005740005041305803E4204C13F4180DDB7B7172F
:100584000040130700032388E702854723A8F18E60
:10059400730020300967B7170040239EE70817252A
:1005A40006E01305E557978002E0E780E0438547BE
:1005B4000146896503C521842385F16A979000E08B
:1005C400E780A040730020303737004083476780BE
:1005D400A18B81C7A1472303F780730020303737ED
:1005E4000040834767C0858BBDC3411122C6854740
:1005F4002303F7C0172500000355E51C976000E0AE
:10060400E78000CA172400001304C41B8357240086
:100614008507C207C183172700002316F71A1D4751
:100624006373F7021C4405456343F700094597606B
:1006340000E0E780A0F29727000023A90718972776
:1006440000002392071832444101730020307300E4
:100654002030976000E0E780C046730020304111ED
:1006640006C6AD25FDBF2303048015472303E4809C
:1006740001002302A480828083076480E3CE07FE06
:1006840023030480828083076480E3CE07FE03454E
:100694004480828083076480E3CE07FE2302A48023
:1006A4008280411126C44AC24EC006C61377F50B98
:1006B400AD47AA892E8995446306F7001945653725
:1006C400653F8D444E854537FD59FD1463983401CB
:1006D400B240A24412498249410182801355090162
:1006E4001375F50F453F2209CDB7011126CC06CE6F
:1006F400B704080051371545BD37713769372AC625
:10070400A53F32459377150089EB136515001375E2
:10071400F50FF240E24405618280FD14E9FC0145D5
:10072400CDBF397126DC4ADA4ED852D656D45AD2C5
:100734005ED006DE62CE66CCB7E700E07D5783AAC2
:10074400070022C603AA470023A0E71823A2E7183C
:10075400B7170040130770052380E704130780FAD6
:100764002380E70483C74704930B75FFB684E2072D
:1007740093FBFB0F8546AA892E8B328937240040D0
:10078400E187015763FA76016308D50089461307A8
:1007940000026313D5000157D98F93F7F70FB71CE5
:1007A40000402382FC0411472303E4801305F00F67
:1007B4005D3D094CD135636D7C11B7050700DA95B1
:1007C40037870700795563F2E504B3879500636EB4
:1007D400F702370B0800A94733EB65016399F90663
:1007E40089E48144513D26850DA0DA850945553DAE
:1007F40005090345F9FFFD14050B693D81C4937791
:10080400FB0FFDF7DD3569FD7D55B7170040130774
:1008140070052380E704130780FA2380E70403C7E5
:100824004704418B2382E704F250B7E700E023A09A
:10083400571123A24711E25432445259C259325A31
:10084400A25A125B825B724CE24C21618280A54702
:100854006395F90685691309F00FB3069900B3741B
:100864002B01B6941349F9FFB3749900856B33795E
:100874006901416B9387F9FFB3F7270199E363FC9F
:10088400340193D94900C147E3E637FF99BF0569AD
:10089400C1697D19D9B71305800D638869011305F2
:1008A40000026384790113051008CA85DD3B353DD8
:1008B40021DD4E99B3843441D9B7DA852D45D5333A
:1008C400CA94E30099F205097D3BA30FA9FED5BFA5
:1008D4009387F9FF93F7F70F6361FC0C83C71C043C
:1008E40013073008631FF70437070800636BEB0432
:1008F400B3079B00B706100063F5D704334BEB0036
:1009040089476393F9068980D549E38C04ECDA8539
:100914000945413B11090327C9FF91472320E4807E
:1009240003076480E34E07FE23033481FD17EDFBC8
:10093400FD14110B81C49377FB0FE9FF7D3371F52F
:10094400E1B5B717004003C75704B707080013778A
:10095400070219E3B78707007955E378FBEA330701
:100964009B00E3FFE7F855B58547E382F9F2DA85A2
:100974002D45053B9389F4FFE38504E6293393F77A
:10098400390091EB8326048003270900930749006B
:10099400E39AE6E43E89CE84F1BFB5476396F90055
:1009A4001305900BC93135BDB1471305B00AE38B6C
:1009B400F9FE99476391F904B7050800B365BB00D4
:1009C4002D45C53181448D4BA14975396396740118
:1009D400832704802320F9008504E39834FF8327C8
:1009E400048013172B01635507002312F900D5BBAC
:1009F4002322F900FDB39D476399F902814513054C
:100A0400B0044531BD442320090023220900FD59C7
:100A14009D3993F77400CA9703C70700FD14398DF5
:100A24002380A700E39634FF6DBBA1476392F904CA
:100A34006D398144630D0B008D479304C003630833
:100A4400FB009304000563048B01930440041375B5
:100A5400C507E30895D81945393139390545213198
:100A640026850D3909453D314931E31C05D669BB5D
:100A740091476399F90013056006F536F53E1305B1
:100A840090090DB7E38F09D4F154A9BB19CD91CDC9
:100A940009CE81473387F500834607003307F50005
:100AA40085072300D700E317F6FE828019C991C990
:100AB40009CA910583A7C5FF11057D16232EF5FEEE
:100AC400C5BF828001C919C62A960505A30FB5FEC4
:100AD400E31DA6FE828081473307F5000307070064
:100AE40019E33E8582808507C5BF01112E8626CA7B
:100AF400AA84131506019305F004418122CC06CE85
:100B040032C6EF00B0562A8401C53246A685BD3FE1
:100B14002285F2406244D24405618280854715C132
:100B24008DC105C28147B306F5003387F50083C63E
:100B34000600034707006398E6008507E315F6FE01
:100B440085473E8582808147EDBF9307F6FFBE95BA
:100B54002A966313C5008280FD1583C71500050519
:100B6400A30FF5FEFDB7AA87014581CF09CE3E96B6
:100B7400850703C7F7FF6317B700E39BC7FE054567
:100B84008280828001458280797197570000938723
:100B9400E73022D4804306D626D24AD04ECE52CC59
:100BA40056CA5AC85EC679C0B7C4C901014B975921
:100BB40000009389292E9384F437175A0000130AEE
:100BC4002A2E975A0000938A2A28175900001309DD
:100BD40069318357240095E35C44631D0B00175768
:100BE4000000232DF72A832BC4002285EF00305503
:100BF4005E84B9A82326FB00FDB783A7090082976A
:100C04001C443307F5406376F500032749001D8F24
:100C14002A9763E2E4089757000023AF072283551D
:100C2400240003450400979000E0E78080C15C4005
:100C34005844A1CB0C4403264900AE97BE8663E416
:100C4400B70063E4C700B386C74014C4228B3A8458
:100C540049F0975700009387271F9C4B09476372FD
:100C6400F706F917175700002328F71EB25022542D
:100C740092540259F249624AD24A424BB24B4561FC
:100C8400828063170B009757000023A9E720A1BFB8
:100C94002326EB0089BF03274A0209CF63EFA7008D
:100CA4003385A74083A70A016376F50097570000B0
:100CB40023A4A71A228B404461BF03274900BA9793
:100CC400C5B79757000023A907184DB7411122C48F
:100CD400175400001304041A1C4006C626C24AC056
:100CE40091C782979757000023A6071897570000CB
:100CF40083C79738858B975400009384A43795C392
:100D040097570000A38A073683C774001547637A90
:100D1400F700A12B83C77400F5178A07A2979C4399
:100D240082971C4491C38297175900001309C9166E
:100D340003270900175600000346161197570000B1
:100D440083C7871093961700BA9683D60600D5CE2C
:100D54009757000083C7470F63E3C70C97570000FA
:100D64002384070E1C40639D07129757000083C716
:100D7400F73091CF83C7740093F7F70F89EB975738
:100D84000000A38D072E979001E0E780800E97570F
:100D94000000938727109C43638407109757000033
:100DA40093874714DC43175700002327F70AE93BCE
:100DB400975700009387C70EDC53FDC317570000F5
:100DC40013078708184B9757000083C7B70E63694A
:100DD400F70C83C7740015476364F70C975700003A
:100DE40083C7072E918BCDEF032609009756000089
:100DF40083C6960563CCD70A2244B2409244024982
:100E04004101179300E06700C3EF850793F7F70FDD
:100E140097560000238AF602E3E2C7F215BF86075D
:100E24003E9783550700231007009757000023912E
:100E34000706975700009387A7039C4317550000A4
:100E44000345850013172500BA979C43829797574B
:100E5400000083D7E703175700000347E7FE93C753
:100E6400F7FF7D8D93171700032709003E978357DB
:100E740007005D8D2310A7009757000083C7C7FCA8
:100E840091C78507175700002300F7FC1757000088
:100E9400034787FB9757000083C717FBE370F7EC02
:100EA400B2402244924402494101828013971700C0
:100EB4003297035707006DF785072DBFAD6737C716
:100EC4000040BD072326F7200F10000097570000AD
:100ED400938787F7C84F83278726BD66BD0693C7C8
:100EE400F7FF99836A052326D7205D8D82804111FF
:100EF400B7170040985F3AC6945F3247E39CE6FE1A
:100F04003245410182801305F00F82800111975709
:100F140000009387272622CC03A4070C26CA06CEFA
:100F24002AC42EC6854419E40145F2406244D244E1
:100F3400056182808347910003471400858B630415
:100F4400F7000044CDB719469305A100130524000A
:100F5400F136E31895FE0545C9BF1757000013077E
:100F640067101C439306001094C3010001000100A4
:100F740001001C4323A007008346150003482500F5
:100F8400A2064208C29603480500C29603483500EB
:100F94006208C29694D78346550003486500A206AA
:100FA4004208C29603484500C29603487500620889
:100FB400C296D4D7834695000348A500A2064208EA
:100FC400C29603488500C2960348B5006208C296DB
:100FD40094DB8346D5000348E500A2064208C29686
:100FE4000348C5000345F500C2966205AA96D4DB02
:100FF40083C6150003C52500A2064205AA9603C5AB
:101004000500AA9603C535006205AA9694CF83C647
:10101400550003C56500A2064205AA9603C545000E
:10102400AA9603C575006205AA96D4CF83C6950017
:1010340003C5A500A2064205AA9603C58500AA9683
:1010440003C5B5006205AA9694D383C6D50003C52B
:10105400E500A2064205AA9603C5C50083C5F500AE
:10106400AA96E205AE96D4D3D443F59AD4C3D44316
:1010740093E61600D4C3944393E6160094C3BA8748
:101084009443D842058B59E3984E01452300E6006A
:101094009843184F2183A300E6009843184F4183D7
:1010A4002301E6009843184F6183A301E6009C43A3
:1010B400D84F2302E600D84F2183A302E600D84F7D
:1010C40041832303E600D84F6183A303E6009853CA
:1010D4002304E60098532183A304E6009853418334
:1010E4002305E60098536183A305E600D85323063D
:1010F400E600D8532183A306E600D853418323078F
:10110400E600DC53E183A307F600828001008DBF73
:1011140017570000130747F51443411122C49C5E7E
:101124004AC006C6998326C2858B3A8417590000A3
:10113400130949F3D1CB9C5E97540000938484F344
:1011440093F7F7F99CDE17570000034707F393075B
:101154000008631BF700832709009C4393F70704E7
:1011640017570000230BF7F083C7040093F7070415
:101174009DC3975700009387E7D19C438297975765
:10118400000023A1A7F083C7040093F7F70B1757B8
:1011940000002301F7EE83C7440093F707048DE7AB
:1011A400854717570000A309F7EC9757000093876A
:1011B40027EE9C43096798C7130700FC9756000065
:1011C400238CE6EAD844F8D31C40985F1183058B3E
:1011D40009CB985F3D9B98DF054797560000238D08
:1011E400E6E8985F1D83058B11CB985F1377F7F7BB
:1011F40098DF8547175700002300F7E88327090085
:10120400D8430583058B19C7D843759BD8C3D843E6
:10121400799BD8C3B240224492440249410182805E
:10122400397106DE16DC1ADA1ED82AD62ED432D24A
:1012340036D03ACE3ECC42CA46C872C676C47AC2CA
:101244007EC0F935F250E2525253C2533255A25580
:10125400125682567247E2475248C248324EA24E54
:10126400124F824F216173002030975700009387FB
:1012740027E29443975700009387C7DF03C707000B
:10128400058B11CB97570000238807DE9757000082
:10129400A38407DE828003C71700058B65F7F85225
:1012A40071FF83C75700DDB7175800001308C8DB68
:1012B400032708001C5F9583858BD1E709C61C5B57
:1012C400BD832300F60085CA83270800985B460780
:1012D400935767016356070093E707C0C207C183AA
:1012E40003970600C207C18709C7BA970947B3C75E
:1012F400E7022390F60085CD834715008DCB9756E2
:10130400000083C686D793F606041387970089479F
:101314008DCA3A9503470500854699471376F70623
:101324006311D60262076187B947634C07008327BC
:1013340008009C5FED838D8B17570000A301F7D441
:1013440081473E8582808547EDBF411122C406C690
:10135400175400001304C4D318403DE9AE877453F6
:10136400FDFE3E85B28597570000238607D09790EF
:1013740001E0E7808083975700009387E7CE9C4382
:10138400B70680009843558F98C3D857719BD8D718
:1013940097570000A38207CE97570000A38C07CC71
:1013A4001C40094798C3144017570000130787CC03
:1013B40083472700858B89EB83473700858BD9C703
:1013C40097570000238A07CAB24022444101828011
:1013D4008D476310F502975700009387E7C89C4335
:1013E400B70680009843558F98C3D857719BD8D7B8
:1013F4005DBF8547E319F5FA5447F977FD17F58F73
:101404005CC70F1000001C40096798C7130700F859
:10141400175600002302E6C6175700001307C7C477
:101424001043184231830D8B11E713076019F8D369
:10143400D4C795BF1842094631830D8B6315C70085
:101444001307E043EDB71307E01BD5B7FC52ADF328
:10145400A5BF5D71A2C4A6C22A8413068002280017
:10146400AE849305100886C6CAC04EDE52DCEFF087
:101474006FE53545979001E0E78040B217530000CF
:10148400130383BE832703009376F41F175E0000C3
:10149400130E4EC523A40700984B975E0000938E4D
:1014A4002EBF370FFCFF1367F70398CBF84F1305D4
:1014B40010F8B7020400137707E0558FF8CF98436C
:1014C400F576FD16758F98C39843B70633009303DA
:1014D40080251377F7E798C3984311497D1F137745
:1014E400F7E71367071098C303270E008549930F86
:1014F40080021C47D58F1CC783A70E001307900DCD
:101504003400B8CB014793553700A69583C705002F
:1015140013767700B3D7C740858BE1C383270300D5
:1015240083280E00239C07042390070603A8C802FF
:101534001378D8FF23A6080383A807001378F707B6
:1015440093F808F833E8080123A0070103A8470229
:101554003368580023A2070383A80E00014823A27E
:10156400780603DA07066307480303A80703038A18
:1015740006001358F80062081358884163580A019A
:1015840003A807031358F8002380060103D80706AD
:101594001378F80F03AA480663060A0003DA8705DE
:1015A400E37F49FB03A847023378E80123A207033A
:1015B40083870600635CF40003C805003396C90002
:1015C4001346F6FF337606012380C5003E8663D3B7
:1015D400A7002A8613158601618505071377F70F7F
:1015E4008506E312F7F3B640264496440649F259B9
:1015F400625A6161828097560000938666A99C4274
:10160400D847131617016355060298471316170196
:10161400635006027D57B8D7175700001307C782D7
:10162400584F050717560000232EE682116798C706
:1016340098470D83058B1DC3175700000347A7A3C5
:1016440013671700175600002307E6A2130700F8D4
:10165400175600002302E6A2214798C79847058B36
:1016640009CF175700000347F7A013671700175651
:101674000000A301E6A0054798C798470983058B96
:1016840009E798470583058B31CF98471756000023
:101694001306469E175500001305059D0983058B07
:1016A400630307101841184331830D8B75EBAC4B62
:1016B400184E93F5050203471700CDCD79EF1307B4
:1016C4007006D8CF034706001367170017560000AB
:1016D4002302E69A114798C718415C57F19B93E798
:1016E40017005CD79C4298479316370163D60602CD
:1016F4009756000083C686AFC18A175700001307A8
:1017040067A7C5CE034787071367070297560000EC
:10171400238EE6AC056798C798479316270163D1D3
:10172400060217570000034727956207618763572E
:1017340007000547975600002380E694096798C779
:1017440098479316070163D606029756000083C68E
:10175400F6A9858A175700001307C7A1ADCE034722
:1017640097071367270097560000A381E6A821670F
:1017740098C7828029D785456315B7001307B0063B
:1017840089B789456315B7001307F0061DBF8D455A
:101794006315B700130730072DB71307500715B7A4
:1017A4001307600739BF034736001367170017563E
:1017B4000000A302E68C094739BF83468707094620
:1017C400BD8A6388C600034787078D463D8BE313B4
:1017D400D7F4114725BF83469707918AC9DA03478F
:1017E40097071367870041B7397106DE16DC1ADAEA
:1017F4001ED82AD62ED432D236D03ACE3ECC42CAC5
:1018040046C872C676C47AC27EC0F533F250E2523C
:101814005253C2533255A255125682567247E2476A
:101824005248C248324EA24E124F824F2161730079
:101834002030975700009387A7859843856793873F
:1018440007777CD3975700009387C7899C4383A667
:101854000709139656006358060083A607091396D2
:101864006600634406007453FDF2828071C5AA8742
:101874000145E9C58D07C207C183F19BC207C18336
:1018840013074003636FF702175700001307478ECF
:101894000843175700001307278D14436398A602C3
:1018A400174700001307C75F185B014541CB41117F
:1018B400C20706C60545DD8D0297B24001454101C8
:1018C4008280175700001307678AD9B7035765004A
:1018D40035E303574500636FF704B306F740214629
:1018E400637CD60203280500938687001D8FAA9681
:1018F400611717460000035686552392E60023A07D
:1019040006012393060014C12312F500130786FF72
:1019140097460000239DE6522313B5009745000027
:1019240083D5E552B387F540174700002311F752DA
:101934002105828008419DB70145828082800DC1C6
:10194400975700009387C78203A3070097570000A7
:101954009387878183A8070081469A8763E31701E9
:10196400828003A80700636DF50A636BA80A1387D6
:101974008700E367E5FE03D6670021670507631761
:10198400E60003C7C19D0507238EE19C974500002F
:101994009385854B03D6470003D76500239307003F
:1019A400329742074183174500002312E54A638AB0
:1019B4006702174500001305657B08416303F502C0
:1019C40003D5660019ED83D7460023A0060121073D
:1019D4003E9621062392C600974700002399E746C6
:1019E400B6879843E30E17F7974600009386067868
:1019F4009442E307D7F683566700BDF283D64700C7
:101A0400035647001843A106B2962392D70098C301
:101A140083D76500A10717470000231AF742828085
:101A2400BE86C28725BF03278511630207124111B1
:101A340022C406C68347C5008345E5042A8493F778
:101A4400C70F2306F500834697000356C700139576
:101A54008601618563F2C508635B0506034587005B
:101A640093F6F607A304D700054693E6270063140C
:101A7400C50093E617002306D4005C4389075CC3C2
:101A8400A30AB400032504112E864C430905EFE094
:101A9400FFFF8327841103465401D44303D7C700AF
:101AA400B296118FD4C32396E7008947A30DF4009F
:101AB400034764039747000083C7A73F6378F7048D
:101AC4008347C40093E707012306F40081A093E74A
:101AD40017002306F4006DB79376F60F635D0502D5
:101AE40003458700854513E627006314B50013E614
:101AF40017002306C400A30AD400A30407008547E3
:101B0400A30DF400832784119C43DDF3B2402244E7
:101B140001454101828093E717002306F400A30ADC
:101B2400D400A3040700032504114C430905EFE086
:101B3400FFF58327841103465401D44303D7C70018
:101B4400B296118FD4C32396E7008D4755BF054540
:101B54008280974700009387A7749C43411122C455
:101B640006C6858B2A84C5EF4165130525F5973094
:101B740002E0E780807D45C58347A5002315F50075
:101B840083270412BDE72320A4122322A41285472D
:101B94002311F404232005008347640154412316D0
:101BA400F5000347D4002304E5000547A304E5003A
:101BB400174700001307074C184F138517021581A8
:101BC4001C437D151375F50F9CC25C43DCC21C4796
:101BD4009CC65C47DCC61C4B9CCA5C4BDCCA1C4FD5
:101BE4009CCE5C4FDCCE19CD938606021307070208
:101BF400C1BF8327441288C3835724042322A41219
:101C0400850779B79747000083D747578507174754
:101C140000002315F756B2402244410182808347D5
:101C2400C40023090400054593C747002306F400B4
:101C3400DDB78347850193F7E70FD5EF8347950118
:101C4400DDEB034625018346C50009CA83456503C8
:101C5400174700000347F72563E7E50013F706017C
:101C640041CF014709C6C18A0357651C81C6835603
:101C7400A51C369751C31307C71217450000035517
:101C8400E526B335A70237460F0041111306062493
:101C9400814622C426C206C67D543305A702976036
:101CA40002E0E780E0789747000083C7F720B38419
:101CB400A700974700009387E74B03A7870983276B
:101CC400070963F387003E84184375FB97470000B8
:101CD4009387471C9C43829781476364A400B3079E
:101CE400A440B2402244B3B7970093C7170092446C
:101CF4003E854101828081473E858280974700006E
:101D04009387073998437C53FDFF8280797126D2EB
:101D140006D622D44AD04ECE52CC56CA5AC85EC633
:101D24008347550303447513AA843E941374F40F34
:101D34009307400263F687001304B4FD1374F40F91
:101D440003AA841383AAC413A38B84122286528504
:101D5400D685976002E0E7802068058915E503CB06
:101D6400D41201498149337B6403930B50024A86A0
:101D74005285D685976002E0E7800066058915C51F
:101D8400639169031374F90F238B8412B2502254A4
:101D940092540259F249624AD24A424BB24B4561CB
:101DA40082808509E20993D989410509E31179FD06
:101DB400E1BF8327850903560504797193D607018A
:101DC400BD8EC206C182358E135776409357564056
:101DD400898B058B5D8F93573640918B5D8F93571D
:101DE4001640A18B5D8F93171600C18B5D8F9317DF
:101DF400360093F707025D8F9317560093558600BC
:101E040093F707041E065D8F1376F60F518F93D751
:101E1400554013D63540118A898BD18F13D675401E
:101E2400D18F13D61540218AD18F13961500418A7C
:101E3400D18F1396350013760602D18F1396550071
:101E4400137606049E05D18F93F5F50FCD8FA20767
:101E540045465D8F3307C70222D42A8426D252CC4A
:101E640056CA032A8413832AC4135AC806D636973B
:101E74004207418393577740135557400989858B0F
:101E8400C98F135537401189C98F135517402189BC
:101E9400C98F131517004189C98F1315370013759E
:101EA4000502C98F13155700935587001375050450
:101EB4001E07C98F1377F70FD98F13D5354013D762
:101EC40055401189098B498F13D57540498F13D516
:101ED40015402189498F139515004189498F139520
:101EE400350013750502498F1395550013750504C4
:101EF4009E05498F93F5F50F4D8F2207D98FB38730
:101F0400C7024AD04ECE5EC662C4B697C207C1832A
:101F140013D7774013D557400989058B498F13D5BB
:101F240037401189498F13D517402189498F13955B
:101F340017004189498F1395370013750502498F9E
:101F44001395570093D58700137505049E07498F91
:101F540093F7F70FD98F13D5354013D7554011890F
:101F6400098B498F13D57540498F13D515402189A5
:101F7400498F139515004189498F139535001375C1
:101F84000502498F13955500137505049E05498F65
:101F940093F5F50F4D8F2207D98FB387C702130628
:101FA40050025285D685B697BD8E93940601C180A2
:101FB40033F6C402137BF60F976002E0E780C0415A
:101FC40005890DED8347D41201498149B3849702F1
:101FD400130C5002C1804A865285D685976002E070
:101FE400E780803F0589937BF90F11C5638634032D
:101FF400850993F9F90F0509E31F89FD230B641380
:10200400B250225492540259F249624AD24A424B83
:10201400B24B224C456182805E8BCDB7797122D45C
:1020240006D683C735002E8423160100A307F100CA
:1020340083C74500100802C02307F10083C7550079
:102044008A8502C2A306F10002C402C802CA02CCF5
:1020540002CEEFE09FF00347F101834704000145FE
:102064006310F7020347E101834714000145631934
:10207400F7000345D101834724001D8D1335150056
:10208400B250225445618280011197470000938722
:10209400670E22CC03A4870C26CA4AC84EC606CEB5
:1020A400AA8413092500854915C083C71400034772
:1020B4003400858B6304F700405CFDB71946930533
:1020C40044004A85EFE09FA5E31835FF2285F240DE
:1020D4006244D2444249B249056182804111974722
:1020E40000009387270922C403A4870C26C24AC090
:1020F40006C693042500054901E82285B24022441E
:102104009244024941018280A6851305A40239370D
:10211400E30525FF405CCDB7411197470000938745
:10212400670522C403A4870C26C24AC006C69304CA
:102134002500054901E82285B2402244924402491F
:1021440041018280A6851305A401C93DE30525FF4D
:04215400405CCDB767
:10215800971100209381812217610020130101EA61
:102168001305400097E5FF1F938545E917060020F2
:10217800130606FE63FAC5008322050023A0550056
:1021880011059105E3EAC5FE17250600130585C567
:10219800970500209385C5FB1386818863FAC500DF
:1021A8008322050023A0550011059105E3EAC5FE29
:1021B80013858188974500209385450F6377B5007F
:1021C800232005001105E36DB5FEFD42739002BCA6
:1021D8008D42739042809302800873A0023097E288
:1021E800FF1F9382A2E193E23200739052309772FC
:1021F80000009382621B73901234730020303D43B9
:102208002A876373C3029377F700BDEFADE5937632
:1022180006FF3D8ABA960CC34CC30CC74CC741078E
:10222800E36BD7FE11E28280B306C3408A069702A9
:10223800000096966780A6002307B700A306B7009C
:102248002306B700A305B7002305B700A304B7000A
:102258002304B700A303B7002303B700A302B70002
:102268002302B700A301B7002301B700A300B700FA
:102278002300B700828093F5F50F93968500D58DDE
:1022880093960501D58D61B79396270097020000B4
:1022980096968682E78086FA9680C1171D8F3E96AD
:1022A800E374C3F8A5B7B7170040854603C8870588
:1022B80083C89705238CD70403C797051378F80FAD
:1022C80093F8F80F13678700A38CE70403C79705F3
:1022D8001377B70FA38CE704238DD7043717004073
:1022E8008347A7051306A705858BFDFB05654147B1
:1022F800B7150040054E1303F5FF2300C6018346BA
:102308000600858AEDFE83D6C5057D17420793C66C
:10231800F6FFB3F666004183B69765F3A10791838C
:10232800130505801D8DA38C15054205238C050515
:1023380041858280B717004003C777051A059205C3
:102348004D8D1377E70F13653500A38BE7041375DD
:10235800F50FA38CA7048280B717004003C7770541
:102368001377E70FA38BE704130700F8A38DE7049F
:102378003D47238CE70413075003A38CE7048280AE
:102388000547B7170040238DE704371700408347F8
:10239800A705858BEDFF0355C7055205518182803E
:1023A80041112A83014E930E407E130F0019930F9B
:1023B800400663E66E149308001913034006B378C9
:1023C8001503854E0D4FA14F337365020D891335E3
:1023D800150063E0BE161308F6FF794672984208A6
:1023E800135808013307C70213D61700BE073297E0
:1023F8006146B3F6C60213068070B386C6023697E6
:10240800A166F58F42075D8FB716004083C7F602B5
:1024180093F70708A307F1000346F10083C7F60204
:1024280093F70708E394C7FE8347F100B716004007
:1024380093F7F70F63890714F3270080A18B93861E
:1024480081886398071401000100B717004013063C
:1024580070052380C704130680FA2380C70401008F
:10246800010023AA070303C6170313660608A388F7
:10247800C70223800704732600809C42A18BD18F5A
:102488007390078023A40188010001001166B71525
:1024980000407D16DC59C85DA98FF18FE5FFF32751
:1024A8000080A18B89CBF327008023A4F1889C426C
:1024B800DD9B7390078001000100B71700401306E9
:1024C80070052380C704130680FA2380C70401001F
:1024D8000100D8DB03C7170313670704A388E702C3
:1024E80023800704732700809C42A18BD98F7390A7
:1024F800078023A4018801000100410182807D1327
:102508003368E3039308E016630E08003368F303A7
:102518009308D016630808009378330093B818001E
:102528009388D81633081E01131E0801135E0E0186
:1025380049B56393E50305486386080001486303CA
:1025480003002A8871087298FD15131E0801C20538
:10255800135E0E01C181B5BD13F8150063F4BF0009
:102568007908D5B713381800E5BF83C7F60293F783
:102578000708A307F1000346F10083C7F60293F7A3
:102588000708E394C7FE8347F10093F7F70FF1DFDD
:1025980065B5F327008023A4F1889C42DD9B7390E6
:1025A800078055B54111B7170040985F3AC6945F48
:1025B8003247E39CE6FE3245410182801D71CEC65A
:1025C80062DC86CEA2CCA6CACAC8D2C4D6C2DAC039
:1025D8005EDE66DA6AD86ED62A8CEF00504DAA897C
:1025E800F3270080A18B9384818889CBF32700800F
:1025F80023A4F1889C40DD9B7390078001000100B3
:10260800B7170040130770052380E704130780FA03
:102618002380E7040100010003C7F702136787005E
:10262800A387E70203C7F7021377770FA387E702A9
:1026380023800704732700809C40A18BD98F739057
:10264800078023A4018801000100F3270080A18BE3
:1026580089CBF327008023A4F1889C40DD9B7390ED
:10266800078001000100B717004013077005238099
:10267800E704130780FA2380E7040100010003C779
:10268800E7021377C70F2387E70203C7E702136739
:1026980017002387E70223800704732700809C40E4
:1026A800A18BD98F7390078023A4018801000100B2
:1026B800F3270080A18B89CBF327008023A4F1881E
:1026C8009C40DD9B7390078001000100B717004014
:1026D800130770052380E704130780FA2380E704B3
:1026E8000100010003C737051377870FA389E704A3
:1026F80003C7370513671700A389E7042380070476
:10270800732700809C40A18BD98F7390078023A4E6
:10271800018801000100130980C133C92903916BA5
:10272800938C0BE8130A5002930A803E2167130723
:1027380007D0130BA00437140040930D0404617DE7
:10274800FD1BB3C79903916C330949033EC6B3CA4D
:102758005903B347E902130980FA338A4A033EC88A
:10276800B347EA02130A7005338B6A033ECABD6792
:10277800938707A6B347FB02014B3ECC7327008023
:10278800218B09CB7327008023A4E18898405D9BA7
:102798007310078001000100930770052380FD0076
:1027A80023802D0101000100034734051367070248
:1027B800A309E40403570405336797012318E404C5
:1027C800035704053367A701420741832318E4042C
:1027D80023800D00F32600809840218B558F7310BD
:1027E800078023A4018801000100034734051377FB
:1027F80007026308071403473405218B6DDF73272D
:102808000080218B09CB7327008023A4E18898409E
:102818005D9B731007800100010023804D01238018
:102828002D0101000100034734051377F70DA309B3
:10283800E4040347340513670702A309E4040357B4
:102848000405336797012318E40403570405336725
:10285800A701420741832318E40423800D00F326CF
:1028680000809840218B558F7310078023A401881E
:10287800010001000347340513770702630E070EB2
:1028880003473405218B6DFF313B2A873ACE193B2C
:102898007247E30DE5FE03570405336797012318D4
:1028A800E40403473405218B6DDF83560405034791
:1028B8002405B247B3F6DB003387EB02BA969D8E48
:1028C800C24763D5D700D24763C3F60E0947636290
:1028D800670FE24713061B0013971600137BF60FCA
:1028E8003347F7026350D040050789463347D7027C
:1028F800F3260080A18A89CAF326008023A4D18800
:102908009440DD9A739006800100010023804D01F8
:1029180023802D01010001008356C4023697420727
:1029280041832316E40223800D00F326008098409B
:10293800218B558F7310078023A4018801000100A3
:1029480035BD73270080218B09CB7327008023A412
:10295800E18898405D9B7310078001000100238087
:102968004D0123802D010100010003473405136741
:102978000702A309E404A9BD73270080218B09CBB2
:102988007327008023A4E18898405D9B731007801B
:102998000100010023804D0123802D010100010069
:1029A8000347340513670702A309E4047DB5E3026E
:1029B8000BF2F3270080A18B89CBF327008023A497
:1029C800F1889C40DD9B7390078001000100B717D8
:1029D8000040130770052380E704130780FA23805B
:1029E800E7040100010003C737059376FC0F13774E
:1029F800870FA389E70403C73705558FA389E70421
:102A080023800704732700809C40A18BD98F739083
:102A1800078023A4018801000100B71700401306AE
:102A28007005930580FA03C737051D8B631E872B36
:102A3800F3270080A18B89CBF327008023A4F1889A
:102A48009C40DD9B7390078001000100B717004090
:102A5800130770052380E704130780FA2380E7042F
:102A68000100010003C7370591661377F70DA389A5
:102A7800E70403C7370513670702A389E70403D7E9
:102A88000705558F2398E70403D70705A166558FD7
:102A98002398E70423800704732700809C40A18BB8
:102AA800D98F7390078023A4018801000100B7170C
:102AB800004093067005130680FA03C7370513779D
:102AC8000702630A07263717004083473705A18B9B
:102AD800EDDFF3270080A18B89CBF327008023A4A7
:102AE800F1889C40DD9B7390078001000100B717B7
:102AF8000040130770052380E704130780FA23803A
:102B0800E7040100010003C7370591661377F70D45
:102B1800A389E70403C7370513670702A389E704F6
:102B280003D70705558F2398E70403D70705A16640
:102B3800558F2398E70423800704732700809C405F
:102B4800A18BD98F7390078023A40188010001000D
:102B5800B717004093067005130680FA03C73705B8
:102B680013770702630107223717004083473705A9
:102B7800A18BEDFF053C2A843534E30F85FE37171A
:102B88000040835707059166D58F2318F7048347BC
:102B98003705A18BEDDFF3270080A18B9386818811
:102BA80089CBF327008023A4F1889C42DD9B739096
:102BB800078001000100B717004013077005238044
:102BC800E704130780FA2380E7040100010003C724
:102BD80037051377F70DA389E704238007047326C5
:102BE80000809842218B518F7310078023A401889D
:102BF8000100010003D7070503C627059167FD17E4
:102C08007D8FB387C70237460F0013060624B3C962
:102C1800C9023E978567938707FAB3978701B389F7
:102C2800370393070010B3C9F9029307800C8E0984
:102C3800B30937410547331C8701135C3C40B30A8D
:102C48005C03130C60553D67130707A6B38A8A0314
:102C5800B3CAEA02B387F902B3C75703635D3017F3
:102C680085070947B3C7E702960773270080218BBA
:102C780009CB7327008023A4E18898425D9B7310D9
:102C88000780010001003717004013067005230074
:102C9800C704130680FA2300C70401000100035685
:102CA800C702B297C207C1832316F702230007049D
:102CB800732700809C42A18BD98F7390078023A42F
:102CC800018801000100F6406644D6444649B649E9
:102CD800264A964A064BF25B625CD25C425DB25D64
:102CE800256182807D1711B173270080218B09CB64
:102CF8007327008023A4E18898405D9B73100780A8
:102D0800010001002380C7042380B70401000100EB
:102D180003C73705558FA389E70423800704732564
:102D280000809840218B498F7310078023A4018865
:102D380001000100CDB973270080218B09CB7327CF
:102D4800008023A4E18898405D9B731007800100F0
:102D580001002380D7042380C7040100010003C7B2
:102D6800370513670702A389E70423800704F325BF
:102D780000809840218B4D8F7310078023A4018811
:102D8800010001001DBB73270080218B09CB73272D
:102D9800008023A4E18898405D9B731007800100A0
:102DA80001002380D7042380C7040100010003C762
:102DB800370513670702A389E70423800704F3256F
:102DC80000809840218B4D8F7310078023A40188C1
:102DD8000100010061B3FD1769B5914763EEB702C1
:102DE80017770200130707338A05BA959C41BA97EB
:102DF8008287B717004003A7470B1345F5FF698F74
:102E080023AAE70A03A7070B698F23A8E70A03A7E2
:102E1800070A798D23A0A70A8280B717004083A6E6
:102E2800470B1347F5FFF98E23AAD70A83A6070B8A
:102E3800558D23A8A70A83A6070A758F23A0E70A3A
:102E48008280B717004003A7470B498F23AAE70AD8
:102E580003A7070B1345F5FF45BFB717004083A627
:102E6800470B1347F5FF758F23AAE70A03A7070A3D
:102E7800598D4DB7B717004003A7470B498FEDB7DA
:102E8800914763EEB702177702001307E7298A050F
:102E9800BA959C41BA978287B717004003A7470D98
:102EA8001345F5FF698F23AAE70C03A7070D698F60
:102EB80023A8E70C03A7070C798D23A0A70C828011
:102EC800B717004083A6470D1347F5FFF98E23AACD
:102ED800D70C83A6070D558D23A8A70C83A6070C2E
:102EE800758F23A0E70C8280B717004003A7470D12
:102EF800498F23AAE70C03A7070D1345F5FF45BF24
:102F0800B717004083A6470D1347F5FF758F23AA0F
:102F1800E70C03A7070C598D4DB7B717004003A757
:102F2800470D498FEDB7931705010547C1836382A4
:102F3800E5048DC10947638DE5040D476380E50607
:102F480037170040231EF70883560709D58F231823
:102F5800F7088280371700400356470993C6F7FFE2
:102F6800F18E231AD7088326C70A558D2326A70A68
:102F7800C1BF371700400356470993C6F7FFF18EC4
:102F8800231AD7088326870A558D2324A70A4DBFFD
:102F98003717004083564709DD8EE1B737170040E1
:102FA80083564709DD8EE9BFB717004003D787016D
:102FB80009C5D98D239CB700828093C5F5FFF98D8B
:102FC800D5BFB717004003D7A70109C5D98D239DE1
:102FD800B700828093C5F5FFF98DD5BF411122C492
:102FE8003717004006C68347270203570702138492
:102FF800818893F7F70F4207418325E91377F79FF5
:10300800420793F7F7074183F3260080A18A89CA0C
:10301800F326008023A4D1881440DD9A739006809B
:1030280001000100B7160040130670052380C6048E
:10303800130680FA2380C6040100010093F7F70FF6
:103048002381F6022390E60223800604732700807A
:103058001C40A18BD98F7390078023A4018801009D
:103068000100B24022444101828093E707081367B8
:103078000740F3260080A18A89CAF326008023A48A
:10308800D1881440DD9A7390068001000100B716BC
:103098000040130670052380C604130680FA2380B7
:1030A800C604010001002381F6022390E602238072
:1030B8000604732700801C40A18BD98F739007806A
:1030C80023A4018801000100294597D0FF1FE7804C
:1030D8006047F3270080A18B89CBF327008023A4C6
:1030E800F1881C40DD9B7390078001000100B71731
:1030F8000040130770052380E704130780FA238034
:10310800E7040100010003D7070213670720239093
:10311800E702238007041DBFB74700401147A3817A
:10312800E70009472380E700130700062380E7002C
:1031380003C7170013670701A380E70003C7170039
:103148001377E70FA380E70082808947374700405D
:10315800631DF5008347170093E70704A300F700F2
:10316800B7470040A381A70082808347170093F7E1
:10317800F70BEDB7B747004003C707001377F70E03
:103188002380E7002382A700374700408347670072
:1031980093F70704E5DF8280B747004003C70700BD
:1031A8001377F70E2380E7007D572382E700374720
:1031B80000408347670093F70704E5DF03454700AE
:1031C8008280B747004003C70700B746004013771F
:1031D800F70E2380E7002396B70005472383E7000F
:1031E8001D4789E9374700408347770093F7F70F72
:1031F800E5FF828003C67700E365C7FE0346050046
:10320800FD15C2052388C6000505C181D9BFB7478A
:10321800004003C707001377F70E2380E700131752
:1032280005012E9541834205239CE7004181239E99
:10323800A7002396B70025472383E70003C7170095
:1032480013671700A380E70003C76700058B6DDFCE
:1032580003C717001377E70FA380E7008280B747FB
:10326800004003C70700136707012380E70013170F
:1032780005012E9541834205239CE7004181239E49
:10328800A7002396B70025472383E70003C7170045
:1032980013671700A380E70003C76700058B6DDF7E
:1032A80003C717001377E70FA380E7008280B717DB
:1032B800004003D58700420541819377050491EBCF
:1032C8009377F5013755E801130505803345F50275
:1032D80082809377050C130700046397E7009377C0
:1032E800F50137459C1CCDB72165130505D08280B3
:1032F800B7F700E08847CC478280814737470040CE
:10330800A14663C4C700328582800345B7C0E38EF7
:10331800A6FE3385F5000345050085072304A7C0ED
:10332800CDB712059A05B727004009474D8D238070
:10333800E7001375F50F2380A700828012059A0510
:10334800B737004009474D8D2380E7801375F50F87
:103358002380A7808280B737004001E5A3800780DB
:103368008280239CB780239EC780154791E205473A
:10337800A380E7808280411122C406C62A84053FC3
:103388002947B307E502B2408D83B3D787022244A9
:103398009507B3D7E70237470040C207C183231612
:1033A800F7C041018280B7870040238007001307D8
:1033B800C0FC2386E700A386E70003D7C1882398CB
:1033C800E70003D70189239AE70003D74189239CA3
:1033D800E70003D78189239EE70089462381D70226
:1033E80049472383E7022385E7022387E7022389E6
:1033F800D702A3810700130790022380E700B716BE
:10340800004003D7A6011367070C239DE6007D57EC
:103418002383E700130710F8A380E7001D472381E3
:10342800E7008280B78700402382A70203C76702AC
:103438001377C70F2383E7028280B787004023846E
:10344800A70203C7A7021377C70F2385E702828065
:10345800B78700402386A70203C7E7021377C70F81
:103468002387E7028280B78700402388A70203C723
:1034780027031377C70F2389E702828003A8450033
:10348800411126C206C622C4834718000348080013
:10349800A944A207B3E70701C2070D68C18713084B
:1034A80028906396070385473284EFB0B05CAA84FE
:1034B80019ED9387018A9C4399CB03451400034770
:1034C80004002205598D1335150005058297B24071
:1034D800224426859244410182802D452DEBD84116
:1034E8008347170003470700A207D98F0D67130505
:1034F80097A16399A70283C7C16817F7FF1F0347FE
:10350800E76763F6E70017F7FF1F2309F7668547A4
:103518002390F60097F7FF1F83C747662300F6003E
:10352800014582801307879029456392E702CC45BD
:103538008947411132852390F600094606C697D07F
:10354800FF1FE7806054B2400145410182808280BC
:1035580083474500858BBDC7011122CC2A840355BA
:103568002500938541A306CEEFB0904B058939C558
:1035780003552400014781460546ED45EFB0B004E8
:103588002AC60DCD97F7FF1F938787BC83D7A7025D
:1035980001462C002314F10085472315F10097F705
:1035A800FF1F83C7A75D2300F50003552400EFC064
:1035B800102409C5ED452800EFB0B018F240624468
:1035C80005618280828041654111938541A37D1503
:1035D80006C6EFD01013B24097F6FF1F938646BC7D
:1035E8004146954517F5FF1F130585B641016FD074
:1035F800700623A0A18A8280411122C406C685478D
:1036080009446313F502834706000144238EF188B9
:1036180017F7FF1F034787566378F7001705000061
:10362800130545F3EFF0304F2285B24022444101A3
:10363800828085476303F50209C909476304E502E7
:103648000D476308E5020945828097F7FF1F83C786
:10365800E7522380F500014582809387C18983C79B
:103668000700C5BF97F7FF1F83D727AF2390F50043
:10367800DDB713874180035707002392E50017F74A
:10368800FF1F1307E7AC8356A7020357A70323833B
:10369800F5002390D5002391E50075BF83C7C16865
:1036A80017F7FF1F0347874D63F2E702411117051C
:1036B8000000130525EA06C617F7FF1F2300F74C7D
:1036C800EFF07045B240014541018280014582809A
:1036D80041677917630CE502411122C406C6854784
:1036E8002A84639AF50022852244B240938541A337
:1036F80041016FD0100189476396F5008545EFF0C9
:10370800103C75D1B2402244410182808280CC4174
:10371800411106C6328503C6150083C50500220679
:103728004D8E42068D654186138875A2630C060F7F
:103738006348C804138845A26306060B634AC80099
:10374800938535A26309B60623900600294679A019
:10375800138855A26308060B938565A2E316B6FE87
:10376800C1451D4663ECE5064546198E63F3C7005F
:103778003E862390C600977502009385259D89A8EB
:10378800138895A26300060F634E060B1388A5A243
:10379800630A060F938505A5E318B6FA99451D46F1
:1037A80063EEE502198E63F3C7003E862390C600D8
:1037B8009385C18031A89D451D4663E1E5022146F8
:1037C800198E63F3C7003E862390C6009385418A0D
:1037D800BA9597D0FF1FE780202B0146B24032856B
:1037E80041018280AD451D46E3EAE5FE3146198E6A
:1037F80063F3C7003E862390C60097750200938541
:10380800A598F9B7B1451D46E3EAE5FC3546198E9A
:1038180063F3C7003E862390C60097750200938520
:10382800A5977DB7C1451D46E3EAE5FA4546198ED9
:1038380063F3C7003E862390C60097750200938500
:10384800259279B7C1451D46E3EAE5F84546198E44
:1038580063F3C7003E862390C600977502009385E0
:10386800A594BDB7C1451D46E3EAE5F64546198E60
:1038780063F3C7003E862390C600977502009385C0
:10388800658FB9B7B5451D46E3EAE5F43946198EA3
:1038980063F3C7003E862390C600977502009385A0
:1038A800E5893DB797F6FF1F938646A34146CD4568
:1038B80017F5FF1F1305858F6FD0C0592D4549E3B4
:1038C80003C5050009476319E506C8411D68034794
:1038D8001500034505002207498F42074187130554
:1038E80028346308A700634EE502130818346311EF
:1038F8000705411106C61305800C3E876374F50061
:103908001307800CCC453285131607012390E60077
:10391800418297D0FF1FE7802017B240014541013F
:10392800828013054834E306A7FC13085834C1B74E
:103938002390060029458280239006000545828051
:10394800828083C7850093F70702F9E7411106C60D
:1039580022C426C24AC003C9050009432E888547E8
:10396800631E690203A345003284B68483471300AB
:1039780003430300A207B3E76700C2071D63C187BB
:10398800130E13346383C70313033334638D67043F
:103998000D681308289063890707A947B240224495
:1039A800924402493E8541018280AD4765FB130779
:1039B800800CB547E364D7FE0325C8001306800CC6
:1039C800A28597D0FF1FE780200C01499387018BC0
:1039D8009843814761D7184371D32686A2854A85C3
:1039E8000297814765BFAD4755FB1307800CB54764
:1039F800E366D7FA0325C8001306800CA28597D082
:103A0800FF1FE7806008D9B72244B24092440249B8
:103A1800854741016FB01006A1473E858280416706
:103A28007917630CE502411122C406C685472A842A
:103A3800639AF50022852244B2409385C18A4101E8
:103A48006FD0204C89476396F5008545EFF0300725
:103A580075D1B2402244410182808280411122C442
:103A68002A8441659385C18A7D1506C6EFD06049D1
:103A7800170500001305E5FA0588EFF0807B05C0FF
:103A88002244B24097F6FF1F938606974146C545E4
:103A980017F5FF1F1305458541016FD0A03BB240C4
:103AA800224401454101828009C523A8A18A014514
:103AB8008280454582801147636AA708976602009D
:103AC8009386C66F0A0536951841411106C6369782
:103AD800AE87B28502871307800C6145639BE700B8
:103AE8001306800C138541A497D0FF1FE780C0F907
:103AF8000145B240410182801307800C6145E39A79
:103B0800E7FE1306800C17F5FF1F1305A590E9BF04
:103B18001307800C6145E39EE7FC1306800C1385B0
:103B2800C1B0D9B71307800C6145E394E7FC1306CD
:103B3800800C138541BD4DBF1307800C6145E39A86
:103B4800E7FA1306800C1385C1C979BF094582803D
:103B5800411122C42E849385C18A26C206C6AA842E
:103B6800EFB0006C058915C197E7FF1F9387C777EA
:103B780083D7A70BA285B2402310F40022442685E0
:103B88009244014641016FC08046B24022449244AB
:103B980049454101828082809387818C9C4303C779
:103BA800C18B83C6718201E781473E85828003D637
:103BB80007006316A60003C66700E308D6FE7D1754
:103BC8001377F70FA107C5B7AA872E85B28589C7CE
:103BD80009476385E70082806F10A02B6F10A02E25
:103BE8000111930500020D4506CEEF80401893059C
:103BF80000031145EF80A01795450545EF80201774
:103C080085471306F100854513055030A307F100D9
:103C1800EFC0611DF2400561828001119305000328
:103C28000D4506CEEF80A014930500051145EF80E1
:103C380000149305C0030545EF80601385471306FC
:103C4800F100854513055030A307F100EFC0A11915
:103C5800F2400561828001119305F100130550417E
:103C680006CEA3070100EFA0A178F2400345F100BA
:103C7800056182808547631AF5001166130686A9D7
:103C8800894503C5D18B6F50905389476317F50059
:103C9800894503C5D18B6F501075828083D7018DFC
:103CA8006391A7022399B18C239AC18C239BD18C51
:103CB8001765020013054556B2862E86BE856F40ED
:103CC800B23D17650200130565576F4032518547AD
:103CD8006398F50019E2238BB18A2386C18C828010
:103CE80009476399E50019E6238BF18A03D5418BCF
:103CF8006F00901C82809387018C9C43011122CC19
:103D080006CE2E8481CB9C4791C78297F2406244AD
:103D1800056182806C0013057040EFA0616D32462A
:103D280081452285EFA0312FD5B701119397050161
:103D380022CC06CE26CA4AC84EC652C4C1872E8493
:103D480063D7070803C5D18BEF50407AAA8439C9D5
:103D5800034705009307000D6313F7048347250005
:103D68004547638BE7046547639BE70217650200D5
:103D780013050546EF405232138954009389B40065
:103D8800176A0200130A0A46834509005285050985
:103D9800EF409230E31A39FF2945EF40F233268588
:103DA800EF50A06D2165218DF2406244D244424912
:103DB800B249224A05618280034665008345750041
:103DC8001765020013058542EF40122DC9BF93F70E
:103DD8001500A9C717E6FF1F1306467697E5FF1FCC
:103DE8009385057503C5D18BEFB0314C9387818BD3
:103DF80098438947630BF700B93D19C9D53317654F
:103E0800020013056540EF40723D1345140069BF79
:103E18002935176502001305A53FF5B793F7250067
:103E280091CFEFF0BF871166130686A9894503C5B0
:103E3800D18BEF50D03813452400BDB793F7450018
:103E48000145BDD313C5450085B7797126D24ECE3D
:103E580006D622D44AD052CC9147AA84AE8963169A
:103E6800F50483D7A5001306E100854513055030F6
:103E7800239AF18A2398F18C23070100238B018A66
:103E8800EFB071769387018C9C4391C7DC4781C75B
:103E9800CE8526858297B250225423AC918A025946
:103EA8009254F249624A456182801387818B184394
:103EB800E31AF7FC854503D5418BEFF07F818545F3
:103EC80003D5418BEF001005C16703DA418BF91761
:103ED8006318FA020544238B018AA3838182C16790
:103EE800F91723A8F18C23AA018CB53331E103C754
:103EF800C18C9147E318F7F80D332386018C59B725
:103F08009387818C03A9070003C4C18B61D403552F
:103F1800290011C99305E100EFB0F01509C54C451A
:103F28005285EFC0107E7D141374F40F2109F9BF78
:103F38009387418C9C4383C74700898BCDDB9305CE
:103F4800000A0D45EF70B0629305000A1145EF7045
:103F5800106281450545EF7090611306E1008545C3
:103F68001305503023078100EFB0F16749B70111FD
:103F7800C16722CC06CE2A84FD1703D5018D631CA8
:103F8800F500176502001305E52BEF403225F240D6
:103F9800624405618280D1472E8663F7B7001765B2
:103FA80002001305A52AD5B72315B100014781469C
:103FB800ED45EFA050612AC679D90356A100A28524
:103FC80097D0FF1FE78040AC2C0003D5018D493600
:103FD8005DDDED452800EFA0D07655BF130101C087
:103FE800170500001305A5D4232E113E232C813E6E
:103FF800232A913E1384D18BEF50107330168545D8
:104008002300A40085441305404123049132EFA006
:10401800B1267D55EFA070237D55EFC0706BEFF092
:104028007F887D55253C1306800C81452800EFE0EC
:104038000F9D1306800C8145880923049100EFE049
:104048000F9C89471306800C8145280B2308F10C27
:10405800EFE0EF9A8D471306800C81458814230CF6
:10406800F118EFE0CF9991471306400C8145681687
:104078002300F126EFE0AF98B707030493871720D2
:104088002324F132300095479305800C014523061F
:10409800F132153490099305800C0545293C300B05
:1040A8009305800C0945013C90149305800C0D453F
:1040B800193430169305800C1145F53AC1671387FA
:1040C800018DF9171CC3232207001385C181EFF066
:1040D800BF9DEFF04FCF452B170500001305C5B95D
:1040E800EFF02FD117050000130525ABD9230345A1
:1040F80004008545EF5020748320C13F0324813F8D
:104108008324413F13010140828023A0B18C23A264
:10411800A18C828023A4B18C238EA18A828093876C
:10412800818B9C43797106D622D426D24AD04ECEB2
:1041380052CC1147639BE70483C7618B414481CF0D
:104148009387818C8043B284B68983C7C18B03C7A8
:10415800718299EB55442285B250225492540259E7
:10416800F249624A4561828083464400639AA60008
:10417800834654006396B600834664006383E60270
:10418800FD1793F7F70F2104E9B709474144E38482
:10419800E7FCD13401C5EFF0BFA475BFBD3C414475
:1041A8005DBF0355240093056100EFB0C06C5DD17D
:1041B8004C4503D5418BEFB0A006058941DD139925
:1041C800040113590901014781464A86ED4503D583
:1041D800418B035A0400EFA0103F2AC64D4425DD49
:1041E8002686CE85231441012315210197D0FF1F70
:1041F800E780808901462C0003D5418BEFB0305F02
:104208002A8431D9ED452800EFA0B053A9B7C84199
:10421800011122CC06CE3284034615000345050061
:104228002206498E19CB0D681308B8A42D45630AD8
:104238000607F2406244056182800D651308D5A423
:1042480063000603130825A2630C0601757813089A
:10425800E85C3298420813580801854863EF080360
:1042680003D5A50036C632C4EFF01F93B24615C178
:104278009387018C9C4322468345550003A307007E
:10428800A2876244F24003454500368785460561AA
:10429800028323900600014569BF1308B5A463177C
:1042A800060303D6E1821D45E375C7F8198E63D36B
:1042B800C7003E86CC452390C60042064182BA9587
:1042C800228597C0FF1FE780207CF1B79307A5A43C
:1042D8006318F60091472390F6001146CC45CDB7F8
:1042E800930785906317F60089472390F6000946DF
:1042F800F5B79307E5A4631AF600DC452390160189
:1043080083C707002300F40079B713057590E314F9
:10431800A6F8D9BF011122CC06CE26CA4AC823174F
:10432800D1002D4431EBDC412E89B28403C417003F
:1043380083C7070022045D8C8D679386D7A4630624
:10434800D400938627A36310D4040355A900EFF083
:10435800BF8419E101440DA09387018C9C438345D8
:1043680055000345450003A807002286A6871307C2
:10437800E100814602982A842285F2406244D244B0
:104388004249056182809386C7A46314D402835787
:10439800E10005473544E391E7FE034506001304B1
:1043A8000008E3EBA7FC9387018C9C43DC438297CE
:1043B80055B793862790631AD4028356E100854740
:1043C800EFA0506B2A844DF99387818C8356A900FE
:1043D8009C4303C7C18B3DDF03D627006302D60485
:1043E8007D171377F70FA107FDB79387E7A4E313AA
:1043F800F4F68357E10005473544E39FE7F60345A4
:10440800060013040008E3E9A7F6DC452380A700AB
:104418009387018C9C433335A0000905DC4341BFD9
:104428001387018C184303C5470083C5570083C70A
:1044380014000328070003C70400A2078946D98F80
:10444800C207C18705476383E7008D460D66A687C7
:104458001307E10013062690029839BF411122C4C0
:1044680041641305F4FF938541D706C626C24AC0A6
:10447800EFC030291305F4FF938541D697E4FF1F59
:104488009384840CEFC0F02797E6FF1F9386C62518
:104498004146E9452685EFC0F01BCC4C2A890945E1
:1044A800EFF02F991387C183834607009387818391
:1044B8000347170003C61700138441D883C50700B4
:1044C800A306E40083D7A40CA30EE40003D7A41624
:1044D800A302C400A30AC40003D6A4132310F40043
:1044E800231CE40083D7A40D1387418303D5A410AC
:1044F8002318C4000357070003D6A4142311F4009B
:1045080085472303F4002306D4002307F400231966
:10451800C400230ED4002302B4002314A400230AE9
:10452800B40023150400230B0400231D0400230FEB
:1045380004002312E40203D7A4189385C1DA2303E5
:10454800F4022310E402231104020D45EFF06F8EEC
:10455800A2851D45C136B24022444A85924402498B
:10456800410182808D67138527A36301A604938781
:10457800D7A40145631EF6008947639CF50085476B
:1045880035456397F60083470700A38EF18C0145F4
:1045980082808D472945E39DF5FE85473545E3999A
:1045A800F6FE83470700A38DF18CD5B785473545BF
:1045B800E390F6FE83470700238DF18CC9BF8D6712
:1045C800138527A36308A6029387D7A46317F60267
:1045D8008947639BF50083C7D18D2300F700854782
:1045E8002390F600014582808D476398F50083C7C4
:1045F800B18DE5B783C7A18DCDB723900600DDB790
:1046080097070020938787EA03D78700DC4323971F
:10461800E18217E7FF1F2327F7FC8280014582808C
:1046280025E303A84500AE8883471800034808001F
:10463800A207B3E707010D68930EF8A4639AD7039E
:1046480091473548639FF60203A5C8004111B2851A
:10465800114606C697C0FF1FE78000439387818EE7
:104668009C4305458297B2400148428541018280BA
:104678009308289029486396170185476FA0903FB3
:104688002D4842858280416541119385C1DB7D15A6
:1046980006C6EFC01007B24097E6FF1F9386860B49
:1046A8004146994517E5FF1F1305C50441016FC031
:1046B800607A23A4A18E828001119385C1DB22CC6C
:1046C80006CE2A84EFA0D035058929C10147814645
:1046D8000546ED452285EFA0006F2AC605C997E774
:1046E800FF1F9387270183D7A70501462C002314B2
:1046F800F10085472315F100230005002285EFB05E
:10470800100F09C5ED452800EFA0B003F240624440
:104718000561828041677917630CE502411122C463
:1047280006C685472A84639AF50022852244B2404A
:104738009385C1DB41016FC0C07C89476396F50052
:104748008545EFE0D03775D1B240224441018280DF
:10475800828011456FD09FE6411193962500AA8566
:104768002D4506C697C0FF1FE78060FBB240014594
:1047780041018280411126C29394250022C44AC077
:104788002A843289A686AA850146254506C697C089
:10479800FF1FE780C0F8A6864A86A285294597C0EC
:1047A800FF1FE780C0F7B240224492440249014506
:1047B80041018280011122CC06CE3714004026CA5E
:1047C8004AC84EC652C483447405034AB405834993
:1047D800840503499405EFD03FB88347A40593F4B3
:1047E800F40F137AFA0F93E71700230DF40493F9E3
:1047F800F90F1379F90FB717004003C7A705058B01
:104808006DFF03D5C705A38D4705238C3705A38CFA
:104818002705A38B9704F2406244D2444249B24927
:10482800224A0561828041119397050122C406C678
:10483800C1872E8463DD0700EF40504B19C1EF405C
:10484800D0432165218DB24022444101828093F7F3
:10485800150013C51500E5FB9397250163D00702E2
:10486800EF50F121FD3537F60200130606E08965A1
:1048780003C5C18EEF50A0140965E9B793971501D8
:104888000145E3D207FC17650200130525A1EF4097
:10489800E21413060064916503C5C18EEF5020121F
:1048A80011654DB7411117050000130505F806C637
:1048B80022C4EF5060671384C18E2300A400292806
:1048C800034504002244B24037F60200130606E00E
:1048D800896541016F50A00E411106C6F32700807B
:1048E800A18B1387818889CBF327008023A4F188C3
:1048F8001C43DD9B7390078001000100B71700403F
:10490800930670052380D704930680FA2380D70482
:104918000100010083C6F70293F6A60FA387D7020A
:1049280023800704F32600801C43A18BD58F739046
:10493800078023A4018801000100F3270080A18BD0
:1049480089CBF327008023A4F1881C43DD9B739057
:10495800078001000100B717004093067005238007
:10496800D704930680FA2380D7040100010083C688
:10497800F70293E62600A387D70223800704F326CD
:1049880000801C43A18BD58F7390078023A40188D6
:10499800010001007D3B1305407E814701478146A8
:1049A80005468545EFD0DF9FB240014541016F5074
:1049B800301041118145414506C6EFE00FC28945D7
:1049C8000145EFD03F97EFD01F8EAA85239AA18E7D
:1049D800176502001305C58CEF30126C17650200CD
:1049E8001305058DEF30927FB7170040238C07041D
:1049F800B24041018280411106C6EFD07F9883D72B
:104A0800418FB2403E9542054181410182800111AA
:104A180022CC26CA4AC806CE2A8901448144631C8E
:104A2800B40033D58402F2406244D244424905615D
:104A38004205418182804A852EC605046D3FAA94AD
:104A48001374F40FB245E1BF5971B7F507008146F9
:104A58005008E105194586D6A2D4A6D2CAD0CECE32
:104A6800D2CC97C0FF1FE78080CB83464101034625
:104A7800510197650200938565846800EF30527C88
:104A88008357C10017E7FF1F2311F7CE8357E100B3
:104A980017E7FF1F231CF7CC83D7410B6382070E50
:104AA80017E7FF1FA30CF7CCA18317E7FF1F230805
:104AB800F7CC83D5410B176502001305E580EF306D
:104AC800B25D83C7610B5546E9C39385610B17E552
:104AD800FF1F130565F3EF30D2501384610B314685
:104AE800976502009385C5851385C1DEEF30724F47
:104AF800B147239CF18E1387C1DC81473A8555461F
:104B0800B306F40083C6060093851700050791C60F
:104B1800A300D700AE87E395C5FE13871700238649
:104B2800E1DC254713842700A386E1DCC14763D86D
:104B380087008567938707812396F1DC45443946CA
:104B480097E5FF1F938545C32295EF309249930758
:104B5800E4004946975502009385457817F5050006
:104B68001305C5C3239BF18E97C0FF1FE780C0FACA
:104B780005ED175502001305A577EF30326601A041
:104B88009307503C239AF10A2DB797E5FF1F9385A9
:104B980025BD17E5FF1F130525E7EF30924417E4FD
:104BA800FF1F1304E4BB25BFB7F600E0795798CA86
:104BB800FD57DCCA0567B7E700E023A0E710130636
:104BC800F00290C223A0E718010001001306C003F9
:104BD8008145480897C0FF1FE78080EE97070020AF
:104BE800938707A13ECA896793870780231CF10032
:104BF800B5472304F10283C7016813978700A167AB
:104C0800938707E0998F3ECE97070000938707B5F3
:104C1800BEC497070000938727B6BEC6B70701052D
:104C2800938707103ED09307B00F2312F1028547F0
:104C38002303F1028567938717D02315F10297E7BD
:104C4800FFFF9387276B3EDAB7F507009707000049
:104C5800938787B63EDE8146970700009387A7AF04
:104C68007000E1051945BEC097C0FF1FE78020AB63
:104C78008347F10003C701681755020013058568CB
:104C8800BA97A307F1000144EF3012410D49975933
:104C9800020093892955175A0200130AAA679944F2
:104CA800631424058345F10003C601685285EF307B
:104CB800B23E0504E31694FE2945EF30F241580848
:104CC8008147994670003E9603460600850705070A
:104CD800A30CC700E398D7FED24791C703578101B9
:104CE8008567637BF70001A07C00A29783C5070056
:104CF8004E85EF30723A75BF4808EF50A026AA8556
:104D080001C9175502001305A561EF30F23801A05B
:104D1800B650265496540659F649664A656182800B
:104D2800797122D426D24AD006D64ECE52CC56CA53
:104D38005AC802C63307A60093070002AA842E8920
:104D4800328463DDE70013040002058C1755020066
:104D58001305C55F4204EF30724841809389A18FE3
:104D6800239D018E916A4E8A7D5B83D5A18F63FC5A
:104D78005501914670002D4597C0FF1FE780209A86
:104D8800B2476393670583D5A18FB1C58115C20565
:104D9800C181239DB18EA2864A86A6952D4597C0CE
:104DA800FF1FE780C09783D5A18F2286A695175548
:104DB80002001305255BEF30322E83570A009387D4
:104DC8000702239DF18E1DA083D709009387070250
:104DD800239DF18E59BF228681454A85EFD02FC287
:104DE8001755020013058557EF30523FB250225431
:104DF80092540259F249624AD24A424B4561828032
:104E0800411122C426C24AC006C63307A60093072A
:104E18000002AA842E89328463DDE70013040002AD
:104E2800058C17550200130565524204EF30123BFA
:104E3800418003D7A18F91676364F70291660146A9
:104E48008145254597C0FF1FE780608D9375F50F55
:104E58001755020013054552EF301224239D018E89
:104E680083D5A18F4A86A695A286294597C0FF1F9C
:104E7800E780E08A83D5A18F22862244B240024986
:104E8800A6959244175502001305455041016F300D
:104E9800B220411122C42E862E84AA851385C1E032
:104EA80006C6EF20905E63088500175502001305BB
:104EB800E556EF30B2322244B24003C521848565FD
:104EC80041016F40501783C70190639607167971A7
:104ED80026D24AD04ECE06D622D452CC56CA5AC86A
:104EE8005EC683C601FB1307A00A2E89AA898144DE
:104EF8006398E61283C611FB1307B00BBE84639157
:104F0800E61203D4419013060010138501FB018EAD
:104F1800229563F3C5002E864A944204CE854180CB
:104F2800EF30320C239281909307001063E68702DA
:104F3800138701FB8D479306C00C1306D00D63EE53
:104F48008702B250225492540259F249624AD24A14
:104F5800424BB24B456182802254B250925402595E
:104F6800F249624AD24A424BB24B130600108145BD
:104F7800138501FB45616FD08FA88345270063988F
:104F8800D502834537006394C5028565138721FBE5
:104F9800F5179385058003C5218423AEE18E2391FF
:104FA800F190EF40500985472380F19059BF85075C
:104FB800C207C183050761B7B385990003C7050018
:104FC8006313470303C71500631F5701330699404E
:104FD800B28B6374CB00130600103E85EF3072006D
:104FE800AA87239271918504C204C180E3E684FCF8
:104FF80083D64190138701FB8D471306C00C930598
:10500800D00DE3F0D7F4034527006316C500034528
:105018003700E30CB5F68507C207C1830507D5B786
:105028001304F9FF130AA00A930AB00B130B00101C
:10503800938701FB65BF8280F17701119387A7BA37
:105048002314F100F9772305A100A305B100938784
:10505800C7DC2800994506CE2316F100EFE03FF1A2
:10506800F24005618280F17779719387A7BA06D6F5
:105078002316F1009387016803C7C7006800B54588
:10508800A307E100130720132318E10003C7170043
:105098002307010023090100A309E100984B83C7F6
:1050A800B702230AE100A30AF100F577938707C046
:1050B800231BF1009307D0FD230CF100EFE03FEB39
:1050C800B25045618280397106DE22DC26DA4AD880
:1050D8004ED652D456D28347050099EB6937F25021
:1050E8006254D2544259B259225A925A216182804A
:1050F80005472A84AE896390E7025946814513859E
:10510800610BEFD0CF8F1386F9FF93051400138539
:10511800610BEF30026D034704008947631CF700F9
:105128001386F9FF930514001385410B239A010A8E
:10513800EF30226B0347040091476313F700BD2E3D
:1051480003470400930730076319F71283471400D5
:1051580005479387D7F893F7F70F6366F70A8347EE
:1051680024000947636FF71E034534000D47636A3F
:10517800A71E130740063305E50213070019938499
:10518800C10C1306400681451389C9FFB387E7029E
:105198003E952695EFD0AF869307200663F4270146
:1051A800130920060345240083473400130A001915
:1051B800930A4006B38757034A869305440033058C
:1051C80045033E9509052695EF30A26183473400D3
:1051D8000347240083461400B38757033307470364
:1051E800BA97A6972380D700834734000347240043
:1051F800B387570333074703BA97BE948547A380FD
:1052080024012388F16A03471400930750076316A3
:10521800F7068347240009476361F706034534000E
:105228000D47636CA704D144130A0005B3874703ED
:105238001389C10C514693050002330595023E952A
:105248001305054B4A95EFC09FFB03453400834780
:1052580024001386C9FF33059502B38747033E959B
:105268001305054B4A9563F3C40051469305440062
:10527800EF30225785472388F16A034704009307D4
:1052880000086310F70EA1476397F91683471400C7
:10529800639307168344340083472400034944007A
:1052A800A204DD8C83475400A68517550200130518
:1052B800250FA207B3E72701034964004209B36732
:1052C800F9000349740062093369F900135AC900E7
:1052D800931A0A0193DA0A014A86D686EF30C25B2E
:1052E8005685EF208031CA94175502001305050D25
:1052F800EF30C26E23A0216B23A2916A8547A38455
:10530800F16AB714004003A7C40C3709020001452D
:105318003367270123A6E40CEF3020099306007EAB
:10532800175602001306C609E1456145EF30A02271
:105338001D4633D6CA02D68697550200938585093D
:105348006800EF30E26F9306007E700093058002DC
:105358006145EF30402083A7840CB3E7270123A4DD
:10536800F40C03470400930720086316F708A147C5
:105378006393F90883461400894763EED7061947F3
:10538800B386E60203463400834524009387C10CA4
:1053980022064D8E1755020013054504BE9623902C
:1053A800C65A834614000346540083454400B38616
:1053B800E60222064D8EBE962391C65A83461400F5
:1053C8000346740083456400B386E60222064D8EC8
:1053D800BE962392C65A834514003387E502BA97CE
:1053E80003D7475A83D6275A03D6075AEF30C24AFB
:1053F80085472388F16A034504009307300863133F
:10540800F506834514008947E3EBB7CCB7C783009B
:105418009387A7BA3EC699472308B100B385F5021A
:105428009387C166194613051101BE95EF30623B9B
:10543800EF2060289D673355F502BD4593578500D9
:10544800230CF1009307C0FC2315A100A30BA100B6
:10545800A30CF10068009307D0FD230DF100EFE0E5
:105468001FB1B5B9930700096311F502834714000A
:1054780017550200130545F923A6F16A8345140060
:10548800EF308241EF00205F99B98145753681B9C7
:105498002380019023AE018E1306001081451385E9
:1054A80001FB6FC0DFD513060019938501E2138550
:1054B800C1E06F20A07882806FF09F86411122C4DE
:1054C8001164930504409306205B0146254506C6F2
:1054D80097B0FF1FE780A024930504402244B24000
:1054E8009306205B1386C10C2945410117B3FF1FA2
:1054F8006700E322411106C69387016883D7070036
:1055080083D5410B17550200130505DC2398F10AD2
:10551800EF30823871469385010B0145EFF05F8EBD
:1055280083C7016B81C7B240410149BFB240410105
:105538008280AA87130710042E85B2856394E7003A
:105548006FD0BF89130720046394E7006FD05F937F
:105558008280371700408327870A0565797113050C
:105568000580C98F06D622D426D24AD02324F70A2A
:105578008D45EFD09F861384010B353FA285714678
:1055880001451D3F83570400116491467008930537
:1055980004402D452390F16802CE97B0FF1FE780A5
:1055A80000187247FD576312F7181306205B8145F0
:1055B8001385C10CEFC0BFC497E705009387077C2C
:1055C80003D7070083C7270039462396E10C2387B2
:1055D800F10C97E705009387A77A83D4070003C4E3
:1055E800270097550200938525EA138541192398CA
:1055F8009112238981121389C15CEF30821E239C8A
:10560800911E238D811E97D4FF1F9384E417138462
:10561800C1578C4091042E852EC6EF30E247B24523
:105628002A8622855104EF30C21BE31424FFEF20A1
:10563800A00AEFE0FFFC914517E505001305857406
:10564800EF10E03997F7FF1F938747E683C5870078
:10565800C843371400408564EF104037EF10603BB3
:105668008327840A09678545D98F2324F40A0965A5
:10567800EFD0AFF689450965EFD0FF8A37070200FA
:10568800B7E700E023A0E7108327440A894511659E
:10569800B58393C71700858B2385F16A8327840A0E
:1056A8001167D98F2324F40AEFD02FF3938704E1ED
:1056B8008545014523AEF168EFD01F8F8327C40AC3
:1056C8008D451305002093E707202326F40AEFD021
:1056D800CFF081450145EFD0DFC4B72700401387DD
:1056E8000477D8C703C707009384F4760146137775
:1056F800B70F2380E70084CB03C707008545014522
:10570800136747002380E70003C707001367870074
:105718002380E700EF30403B5145EF30403CB2502A
:10572800225492540259456182809306205B138665
:10573800C10C930504402D4597B0FF1FE78020FE5C
:10574800FDB5397117150000130585AE06DE22DC9C
:1057580026DA4AD84ED652D456D25AD05ECE62CC29
:1057680066CA6AC8EF40407C130600058945238154
:10577800A184EF40C0241306000A854503C521848F
:10578800EF40E0231306E0639305000803C5218476
:10579800EF40E022371700408327870A05640D464B
:1057A800C18F2324F70A85651305100459338D45E5
:1057B80013050002EFD0CFEC85454145EFD04FEC03
:1057C80085453D45EFD0CFEB854513050010EFD05B
:1057D800CFE0EF30C05AEF3000721306C009914590
:1057E80003C52184EF40A01DEFF0AF9C894501451A
:1057F800EFF0EFA1930790143305F502130484B476
:1058080013074006930620FA3345850223A4A168AE
:10581800130505EC3305E5028147634AD500930774
:10582800F005B347F5026354F700930740061306E3
:105838000005C14503C521842386F168EF4020187F
:1058480089650145EFD0EFF7EF00D0460945EF0035
:105858003050130640069305004003C52184EF40ED
:105868000016371400408327840C05678D45D98FAF
:105878002324F40C0565EFD0AFE0EFF0DFC28327F7
:10588800840CB70402008D45C58F2324F40C37051A
:105898000200EFD0EFDE8327840C8D45130500202E
:1058A80093E707202324F40CEFD08FDD8327840CA3
:1058B80041678D45D98F2324F40C4165EFD04FDC27
:1058C800930500100545EFD02FEE8D451965EFD0F3
:1058D8002FDB89452165EFD0AFDAEFD0FF8309458B
:1058E800EFD0BF868327C40C154593E707202326EE
:1058F800F40C97B0FF1FE780C0C58327840C0545CB
:1059080093E707202324F40C97B0FF1FE78060C4B7
:105918008327C40CC58F2326F40CEF2010082165BB
:105928007D15EF20902803C51168EF30601D83278F
:10593800840CC58F2324F40CEF10D030EF10F052F4
:10594800AA8517D505001305651F81E983D56184EC
:10595800A18117D505001305251FEF20F273EF105D
:1059680090559355450117D505001305251FEF20C0
:10597800B272EF1050549D65B355B50217D50500A6
:105988001305451FEF20527191659146700093856C
:1059980005402D4502C697B0FF1FE78040D8324723
:1059A800FD57631CF70617DAFF1F130AEADE1D44CA
:1059B800975C0200938CCC9EE57B196B130C00401E
:1059C800930A6004930494FF63CB84089319C4007A
:1059D800DE99014D93040B40268963749C001309DA
:1059E800004003250A0013160901CE856A954182F5
:1059F800B3842441EF10F039CA994A9DF1FC1D0483
:105A0800110AE31154FDB707090023A6F1669307AD
:105A180040062398F166EFF07FAA1306000A89650D
:105A280003C52184EF30B07923A80168B7A7200007
:105A38009387F70F23ACF168F2502388016A625408
:105A4800A14723A6F16AD2544259B259225A925A0E
:105A5800025BF24B624CD24C424D21618280A68699
:105A68001396C40085656685EF2012632685EF10BE
:105A7800D038850491BF83C71168BDEF938701684B
:105A8800DC579D461387F7FF63E4E602975602004A
:105A9800938686990A0736971843369702871947D7
:105AA80023A8E1683727F0001307970223ACE168C1
:105AB80003C7B16A31E30947638DE7026365F702FB
:105AC8000547638CE70282800547D9BF1547C9BFE0
